{
  "_format": "hh-sol-artifact-1",
  "contractName": "SocialMedia",
  "sourceName": "contracts/SocialMedia.sol",
  "abi": [
    {
      "anonymous": false,
      "inputs": [
        {
          "indexed": true,
          "internalType": "address",
          "name": "from",
          "type": "address"
        },
        {
          "indexed": true,
          "internalType": "address",
          "name": "to",
          "type": "address"
        },
        {
          "indexed": false,
          "internalType": "uint256",
          "name": "amount",
          "type": "uint256"
        }
      ],
      "name": "Reward",
      "type": "event"
    },
    {
      "inputs": [
        {
          "internalType": "bytes32",
          "name": "_postId",
          "type": "bytes32"
        },
        {
          "internalType": "string",
          "name": "_comment",
          "type": "string"
        },
        {
          "internalType": "string",
          "name": "username",
          "type": "string"
        }
      ],
      "name": "addComment",
      "outputs": [],
      "stateMutability": "nonpayable",
      "type": "function"
    },
    {
      "inputs": [
        {
          "internalType": "bytes32",
          "name": "",
          "type": "bytes32"
        },
        {
          "internalType": "uint256",
          "name": "",
          "type": "uint256"
        }
      ],
      "name": "comments",
      "outputs": [
        {
          "internalType": "bytes32",
          "name": "id",
          "type": "bytes32"
        },
        {
          "internalType": "bytes32",
          "name": "postId",
          "type": "bytes32"
        },
        {
          "internalType": "string",
          "name": "owner",
          "type": "string"
        },
        {
          "internalType": "string",
          "name": "content",
          "type": "string"
        }
      ],
      "stateMutability": "view",
      "type": "function"
    },
    {
      "inputs": [
        {
          "internalType": "string",
          "name": "_contentType",
          "type": "string"
        },
        {
          "internalType": "string",
          "name": "_content",
          "type": "string"
        }
      ],
      "name": "createPost",
      "outputs": [],
      "stateMutability": "nonpayable",
      "type": "function"
    },
    {
      "inputs": [
        {
          "internalType": "string",
          "name": "_username",
          "type": "string"
        },
        {
          "internalType": "string",
          "name": "_photoUrl",
          "type": "string"
        }
      ],
      "name": "createUser",
      "outputs": [],
      "stateMutability": "nonpayable",
      "type": "function"
    },
    {
      "inputs": [],
      "name": "getAllPosts",
      "outputs": [
        {
          "components": [
            {
              "internalType": "bytes32",
              "name": "id",
              "type": "bytes32"
            },
            {
              "internalType": "address",
              "name": "owner",
              "type": "address"
            },
            {
              "internalType": "string",
              "name": "ownerUsername",
              "type": "string"
            },
            {
              "internalType": "string",
              "name": "ownerPhotoUrl",
              "type": "string"
            },
            {
              "internalType": "string",
              "name": "contentType",
              "type": "string"
            },
            {
              "internalType": "string",
              "name": "content",
              "type": "string"
            },
            {
              "internalType": "uint256",
              "name": "likes",
              "type": "uint256"
            },
            {
              "internalType": "uint256",
              "name": "timestamp",
              "type": "uint256"
            },
            {
              "components": [
                {
                  "internalType": "bytes32",
                  "name": "id",
                  "type": "bytes32"
                },
                {
                  "internalType": "bytes32",
                  "name": "postId",
                  "type": "bytes32"
                },
                {
                  "internalType": "string",
                  "name": "owner",
                  "type": "string"
                },
                {
                  "internalType": "string",
                  "name": "content",
                  "type": "string"
                }
              ],
              "internalType": "struct SocialMedia.Comment[]",
              "name": "comment",
              "type": "tuple[]"
            }
          ],
          "internalType": "struct SocialMedia.PostWithOwner[]",
          "name": "",
          "type": "tuple[]"
        }
      ],
      "stateMutability": "view",
      "type": "function"
    },
    {
      "inputs": [
        {
          "internalType": "bytes32",
          "name": "_postId",
          "type": "bytes32"
        }
      ],
      "name": "getPostDetails",
      "outputs": [
        {
          "components": [
            {
              "internalType": "bytes32",
              "name": "id",
              "type": "bytes32"
            },
            {
              "internalType": "address",
              "name": "owner",
              "type": "address"
            },
            {
              "internalType": "string",
              "name": "ownerUsername",
              "type": "string"
            },
            {
              "internalType": "string",
              "name": "ownerPhotoUrl",
              "type": "string"
            },
            {
              "internalType": "string",
              "name": "contentType",
              "type": "string"
            },
            {
              "internalType": "string",
              "name": "content",
              "type": "string"
            },
            {
              "internalType": "uint256",
              "name": "likes",
              "type": "uint256"
            },
            {
              "internalType": "uint256",
              "name": "timestamp",
              "type": "uint256"
            },
            {
              "components": [
                {
                  "internalType": "bytes32",
                  "name": "id",
                  "type": "bytes32"
                },
                {
                  "internalType": "bytes32",
                  "name": "postId",
                  "type": "bytes32"
                },
                {
                  "internalType": "string",
                  "name": "owner",
                  "type": "string"
                },
                {
                  "internalType": "string",
                  "name": "content",
                  "type": "string"
                }
              ],
              "internalType": "struct SocialMedia.Comment[]",
              "name": "comment",
              "type": "tuple[]"
            }
          ],
          "internalType": "struct SocialMedia.PostWithOwner[]",
          "name": "",
          "type": "tuple[]"
        }
      ],
      "stateMutability": "view",
      "type": "function"
    },
    {
      "inputs": [
        {
          "internalType": "address",
          "name": "_userAddress",
          "type": "address"
        }
      ],
      "name": "getUserPosts",
      "outputs": [
        {
          "components": [
            {
              "internalType": "bytes32",
              "name": "id",
              "type": "bytes32"
            },
            {
              "internalType": "address",
              "name": "owner",
              "type": "address"
            },
            {
              "internalType": "string",
              "name": "contentType",
              "type": "string"
            },
            {
              "internalType": "string",
              "name": "content",
              "type": "string"
            },
            {
              "internalType": "uint256",
              "name": "likes",
              "type": "uint256"
            },
            {
              "internalType": "uint256",
              "name": "timestamp",
              "type": "uint256"
            }
          ],
          "internalType": "struct SocialMedia.Post[]",
          "name": "",
          "type": "tuple[]"
        }
      ],
      "stateMutability": "view",
      "type": "function"
    },
    {
      "inputs": [
        {
          "internalType": "address",
          "name": "_userAddress",
          "type": "address"
        }
      ],
      "name": "getUserProfile",
      "outputs": [
        {
          "internalType": "string",
          "name": "",
          "type": "string"
        },
        {
          "internalType": "string",
          "name": "",
          "type": "string"
        },
        {
          "internalType": "uint256",
          "name": "",
          "type": "uint256"
        },
        {
          "internalType": "uint256",
          "name": "",
          "type": "uint256"
        },
        {
          "internalType": "bool",
          "name": "",
          "type": "bool"
        }
      ],
      "stateMutability": "view",
      "type": "function"
    },
    {
      "inputs": [
        {
          "internalType": "bytes32",
          "name": "_postId",
          "type": "bytes32"
        },
        {
          "internalType": "address",
          "name": "userAddress",
          "type": "address"
        }
      ],
      "name": "likePost",
      "outputs": [],
      "stateMutability": "nonpayable",
      "type": "function"
    },
    {
      "inputs": [],
      "name": "login",
      "outputs": [
        {
          "internalType": "bool",
          "name": "",
          "type": "bool"
        }
      ],
      "stateMutability": "view",
      "type": "function"
    },
    {
      "inputs": [],
      "name": "logout",
      "outputs": [],
      "stateMutability": "nonpayable",
      "type": "function"
    },
    {
      "inputs": [
        {
          "internalType": "address",
          "name": "",
          "type": "address"
        },
        {
          "internalType": "uint256",
          "name": "",
          "type": "uint256"
        }
      ],
      "name": "posts",
      "outputs": [
        {
          "internalType": "bytes32",
          "name": "id",
          "type": "bytes32"
        },
        {
          "internalType": "address",
          "name": "owner",
          "type": "address"
        },
        {
          "internalType": "string",
          "name": "contentType",
          "type": "string"
        },
        {
          "internalType": "string",
          "name": "content",
          "type": "string"
        },
        {
          "internalType": "uint256",
          "name": "likes",
          "type": "uint256"
        },
        {
          "internalType": "uint256",
          "name": "timestamp",
          "type": "uint256"
        }
      ],
      "stateMutability": "view",
      "type": "function"
    },
    {
      "inputs": [
        {
          "internalType": "address payable",
          "name": "_to",
          "type": "address"
        }
      ],
      "name": "rewardEngagement",
      "outputs": [],
      "stateMutability": "payable",
      "type": "function"
    },
    {
      "inputs": [
        {
          "internalType": "uint256",
          "name": "",
          "type": "uint256"
        }
      ],
      "name": "userAddresses",
      "outputs": [
        {
          "internalType": "address",
          "name": "",
          "type": "address"
        }
      ],
      "stateMutability": "view",
      "type": "function"
    },
    {
      "inputs": [
        {
          "internalType": "address",
          "name": "",
          "type": "address"
        }
      ],
      "name": "users",
      "outputs": [
        {
          "internalType": "string",
          "name": "username",
          "type": "string"
        },
        {
          "internalType": "string",
          "name": "photoUrl",
          "type": "string"
        },
        {
          "internalType": "uint256",
          "name": "points",
          "type": "uint256"
        },
        {
          "internalType": "uint256",
          "name": "interactionTime",
          "type": "uint256"
        },
        {
          "internalType": "bool",
          "name": "isLoggedIn",
          "type": "bool"
        }
      ],
      "stateMutability": "view",
      "type": "function"
    }
  ],
  "bytecode": "0x608060405234801561001057600080fd5b50613bec806100206000396000f3fe6080604052600436106100e85760003560e01c806387b162b51161008a578063a87430ba11610059578063a87430ba146102ec578063a9263d1e1461032d578063b34e97e81461036a578063d299788014610395576100e8565b806387b162b51461021c578063987ee156146102455780639a2194a914610286578063a7503db2146102c3576100e8565b80634eaa4dc4116100c65780634eaa4dc414610158578063502c9bd5146101745780635c538df3146101b15780636a50931a146101f3576100e8565b80631f3c99c3146100ed5780633056110014610104578063392338f51461012f575b600080fd5b3480156100f957600080fd5b506101026103d5565b005b34801561011057600080fd5b506101196104bf565b60405161012691906129fd565b60405180910390f35b34801561013b57600080fd5b5061015660048036038101906101519190612b68565b610c40565b005b610172600480360381019061016d9190612c1e565b610ec9565b005b34801561018057600080fd5b5061019b60048036038101906101969190612c77565b610fc5565b6040516101a89190612cb3565b60405180910390f35b3480156101bd57600080fd5b506101d860048036038101906101d39190612cfa565b611004565b6040516101ea96959493929190612da2565b60405180910390f35b3480156101ff57600080fd5b5061021a60048036038101906102159190612e3d565b61118d565b005b34801561022857600080fd5b50610243600480360381019061023e9190612b68565b6113ef565b005b34801561025157600080fd5b5061026c60048036038101906102679190612e7d565b6115f5565b60405161027d959493929190612ec5565b60405180910390f35b34801561029257600080fd5b506102ad60048036038101906102a89190612e7d565b6118c6565b6040516102ba9190613078565b60405180910390f35b3480156102cf57600080fd5b506102ea60048036038101906102e5919061309a565b611b02565b005b3480156102f857600080fd5b50610313600480360381019061030e9190612e7d565b611c20565b604051610324959493929190612ec5565b60405180910390f35b34801561033957600080fd5b50610354600480360381019061034f9190613125565b611d73565b60405161036191906129fd565b60405180910390f35b34801561037657600080fd5b5061037f612402565b60405161038c9190613152565b60405180910390f35b3480156103a157600080fd5b506103bc60048036038101906103b7919061316d565b612469565b6040516103cc94939291906131ad565b60405180910390f35b6000803373ffffffffffffffffffffffffffffffffffffffff1673ffffffffffffffffffffffffffffffffffffffff16815260200190815260200160002060040160009054906101000a900460ff16610463576040517f08c379a000000000000000000000000000000000000000000000000000000000815260040161045a9061324c565b60405180910390fd5b60008060003373ffffffffffffffffffffffffffffffffffffffff1673ffffffffffffffffffffffffffffffffffffffff16815260200190815260200160002060040160006101000a81548160ff021916908315150217905550565b60606000803373ffffffffffffffffffffffffffffffffffffffff1673ffffffffffffffffffffffffffffffffffffffff16815260200190815260200160002060040160009054906101000a900460ff1661054f576040517f08c379a0000000000000000000000000000000000000000000000000000000008152600401610546906132b8565b60405180910390fd5b6000805b60038054905081101561060157600060038281548110610576576105756132d8565b5b9060005260206000200160009054906101000a900473ffffffffffffffffffffffffffffffffffffffff169050600160008273ffffffffffffffffffffffffffffffffffffffff1673ffffffffffffffffffffffffffffffffffffffff16815260200190815260200160002080549050836105f19190613336565b9250508080600101915050610553565b5060008167ffffffffffffffff81111561061e5761061d612a3d565b5b60405190808252806020026020018201604052801561065757816020015b6106446125c6565b81526020019060019003908161063c5790505b5090506000805b600380549050811015610c3657600060038281548110610681576106806132d8565b5b9060005260206000200160009054906101000a900473ffffffffffffffffffffffffffffffffffffffff1690506000600160008373ffffffffffffffffffffffffffffffffffffffff1673ffffffffffffffffffffffffffffffffffffffff168152602001908152602001600020905060005b8180549050811015610c26576000828281548110610715576107146132d8565b5b9060005260206000209060060201905060008060008360010160009054906101000a900473ffffffffffffffffffffffffffffffffffffffff1673ffffffffffffffffffffffffffffffffffffffff1673ffffffffffffffffffffffffffffffffffffffff1681526020019081526020016000209050600060026000846000015481526020019081526020016000209050604051806101200160405280846000015481526020018460010160009054906101000a900473ffffffffffffffffffffffffffffffffffffffff1673ffffffffffffffffffffffffffffffffffffffff16815260200183600001805461080b90613399565b80601f016020809104026020016040519081016040528092919081815260200182805461083790613399565b80156108845780601f1061085957610100808354040283529160200191610884565b820191906000526020600020905b81548152906001019060200180831161086757829003601f168201915b5050505050815260200183600101805461089d90613399565b80601f01602080910402602001604051908101604052809291908181526020018280546108c990613399565b80156109165780601f106108eb57610100808354040283529160200191610916565b820191906000526020600020905b8154815290600101906020018083116108f957829003601f168201915b5050505050815260200184600201805461092f90613399565b80601f016020809104026020016040519081016040528092919081815260200182805461095b90613399565b80156109a85780601f1061097d576101008083540402835291602001916109a8565b820191906000526020600020905b81548152906001019060200180831161098b57829003601f168201915b505050505081526020018460030180546109c190613399565b80601f01602080910402602001604051908101604052809291908181526020018280546109ed90613399565b8015610a3a5780601f10610a0f57610100808354040283529160200191610a3a565b820191906000526020600020905b815481529060010190602001808311610a1d57829003601f168201915b50505050508152602001846004015481526020018460050154815260200182805480602002602001604051908101604052809291908181526020016000905b82821015610be357838290600052602060002090600402016040518060800160405290816000820154815260200160018201548152602001600282018054610ac090613399565b80601f0160208091040260200160405190810160405280929190818152602001828054610aec90613399565b8015610b395780601f10610b0e57610100808354040283529160200191610b39565b820191906000526020600020905b815481529060010190602001808311610b1c57829003601f168201915b50505050508152602001600382018054610b5290613399565b80601f0160208091040260200160405190810160405280929190818152602001828054610b7e90613399565b8015610bcb5780601f10610ba057610100808354040283529160200191610bcb565b820191906000526020600020905b815481529060010190602001808311610bae57829003601f168201915b50505050508152505081526020019060010190610a79565b50505050815250898981518110610bfd57610bfc6132d8565b5b60200260200101819052508780610c13906133ca565b98505050505080806001019150506106f4565b505050808060010191505061065e565b5081935050505090565b6000803373ffffffffffffffffffffffffffffffffffffffff1673ffffffffffffffffffffffffffffffffffffffff16815260200190815260200160002060040160009054906101000a900460ff16610cce576040517f08c379a0000000000000000000000000000000000000000000000000000000008152600401610cc5906132b8565b60405180910390fd5b6000825111610d12576040517f08c379a0000000000000000000000000000000000000000000000000000000008152600401610d099061345e565b60405180910390fd5b6000815111610d56576040517f08c379a0000000000000000000000000000000000000000000000000000000008152600401610d4d906134ca565b60405180910390fd5b6000428233604051602001610d6d9392919061358f565b604051602081830303815290604052805190602001209050600160003373ffffffffffffffffffffffffffffffffffffffff1673ffffffffffffffffffffffffffffffffffffffff1681526020019081526020016000206040518060c001604052808381526020013373ffffffffffffffffffffffffffffffffffffffff168152602001858152602001848152602001600081526020014281525090806001815401808255809150506001900390600052602060002090600602016000909190919091506000820151816000015560208201518160010160006101000a81548173ffffffffffffffffffffffffffffffffffffffff021916908373ffffffffffffffffffffffffffffffffffffffff1602179055506040820151816002019081610e979190613774565b506060820151816003019081610ead9190613774565b506080820151816004015560a082015181600501555050505050565b600073ffffffffffffffffffffffffffffffffffffffff168173ffffffffffffffffffffffffffffffffffffffff1603610f38576040517f08c379a0000000000000000000000000000000000000000000000000000000008152600401610f2f90613892565b60405180910390fd5b60003411610f7b576040517f08c379a0000000000000000000000000000000000000000000000000000000008152600401610f72906138fe565b60405180910390fd5b8073ffffffffffffffffffffffffffffffffffffffff166108fc349081150290604051600060405180830381858888f19350505050158015610fc1573d6000803e3d6000fd5b5050565b60038181548110610fd557600080fd5b906000526020600020016000915054906101000a900473ffffffffffffffffffffffffffffffffffffffff1681565b6001602052816000526040600020818154811061102057600080fd5b9060005260206000209060060201600091509150508060000154908060010160009054906101000a900473ffffffffffffffffffffffffffffffffffffffff169080600201805461107090613399565b80601f016020809104026020016040519081016040528092919081815260200182805461109c90613399565b80156110e95780601f106110be576101008083540402835291602001916110e9565b820191906000526020600020905b8154815290600101906020018083116110cc57829003601f168201915b5050505050908060030180546110fe90613399565b80601f016020809104026020016040519081016040528092919081815260200182805461112a90613399565b80156111775780601f1061114c57610100808354040283529160200191611177565b820191906000526020600020905b81548152906001019060200180831161115a57829003601f168201915b5050505050908060040154908060050154905086565b6000803373ffffffffffffffffffffffffffffffffffffffff1673ffffffffffffffffffffffffffffffffffffffff16815260200190815260200160002060040160009054906101000a900460ff1661121b576040517f08c379a0000000000000000000000000000000000000000000000000000000008152600401611212906132b8565b60405180910390fd5b6000600160008373ffffffffffffffffffffffffffffffffffffffff1673ffffffffffffffffffffffffffffffffffffffff168152602001908152602001600020905060005b81805490508110156113e95783828281548110611281576112806132d8565b5b906000526020600020906006020160000154036113dc578181815481106112ab576112aa6132d8565b5b906000526020600020906006020160040160008154809291906112cd906133ca565b919050555060008282815481106112e7576112e66132d8565b5b906000526020600020906006020160010160009054906101000a900473ffffffffffffffffffffffffffffffffffffffff16905060016000808373ffffffffffffffffffffffffffffffffffffffff1673ffffffffffffffffffffffffffffffffffffffff168152602001908152602001600020600201600082825461136d9190613336565b925050819055508073ffffffffffffffffffffffffffffffffffffffff163373ffffffffffffffffffffffffffffffffffffffff167f6b053894d8fdbdcc936dd753e21291f0c48e68ef12306eb39a63a374147ba4bd60016040516113d29190613959565b60405180910390a3505b8080600101915050611261565b50505050565b6000825111611433576040517f08c379a000000000000000000000000000000000000000000000000000000000815260040161142a906139c0565b60405180910390fd5b6000803373ffffffffffffffffffffffffffffffffffffffff1673ffffffffffffffffffffffffffffffffffffffff16815260200190815260200160002060040160009054906101000a900460ff16156114c2576040517f08c379a00000000000000000000000000000000000000000000000000000000081526004016114b990613a2c565b60405180910390fd5b6040518060a0016040528083815260200182815260200160008152602001428152602001600115158152506000803373ffffffffffffffffffffffffffffffffffffffff1673ffffffffffffffffffffffffffffffffffffffff16815260200190815260200160002060008201518160000190816115409190613774565b5060208201518160010190816115569190613774565b50604082015181600201556060820151816003015560808201518160040160006101000a81548160ff0219169083151502179055509050506003339080600181540180825580915050600190039060005260206000200160009091909190916101000a81548173ffffffffffffffffffffffffffffffffffffffff021916908373ffffffffffffffffffffffffffffffffffffffff1602179055505050565b60608060008060008073ffffffffffffffffffffffffffffffffffffffff168673ffffffffffffffffffffffffffffffffffffffff160361166b576040517f08c379a000000000000000000000000000000000000000000000000000000000815260040161166290613a98565b60405180910390fd5b6000808773ffffffffffffffffffffffffffffffffffffffff1673ffffffffffffffffffffffffffffffffffffffff16815260200190815260200160002060040160009054906101000a900460ff166116f9576040517f08c379a00000000000000000000000000000000000000000000000000000000081526004016116f090613b2a565b60405180910390fd5b60008060008873ffffffffffffffffffffffffffffffffffffffff1673ffffffffffffffffffffffffffffffffffffffff1681526020019081526020016000206040518060a001604052908160008201805461175490613399565b80601f016020809104026020016040519081016040528092919081815260200182805461178090613399565b80156117cd5780601f106117a2576101008083540402835291602001916117cd565b820191906000526020600020905b8154815290600101906020018083116117b057829003601f168201915b505050505081526020016001820180546117e690613399565b80601f016020809104026020016040519081016040528092919081815260200182805461181290613399565b801561185f5780601f106118345761010080835404028352916020019161185f565b820191906000526020600020905b81548152906001019060200180831161184257829003601f168201915b5050505050815260200160028201548152602001600382015481526020016004820160009054906101000a900460ff161515151581525050905080600001518160200151826040015183606001518460800151955095509550955095505091939590929450565b60606000600160008473ffffffffffffffffffffffffffffffffffffffff1673ffffffffffffffffffffffffffffffffffffffff168152602001908152602001600020805480602002602001604051908101604052809291908181526020016000905b82821015611af357838290600052602060002090600602016040518060c0016040529081600082015481526020016001820160009054906101000a900473ffffffffffffffffffffffffffffffffffffffff1673ffffffffffffffffffffffffffffffffffffffff1673ffffffffffffffffffffffffffffffffffffffff1681526020016002820180546119bc90613399565b80601f01602080910402602001604051908101604052809291908181526020018280546119e890613399565b8015611a355780601f10611a0a57610100808354040283529160200191611a35565b820191906000526020600020905b815481529060010190602001808311611a1857829003601f168201915b50505050508152602001600382018054611a4e90613399565b80601f0160208091040260200160405190810160405280929190818152602001828054611a7a90613399565b8015611ac75780601f10611a9c57610100808354040283529160200191611ac7565b820191906000526020600020905b815481529060010190602001808311611aaa57829003601f168201915b505050505081526020016004820154815260200160058201548152505081526020019060010190611929565b50505050905080915050919050565b6000825111611b46576040517f08c379a0000000000000000000000000000000000000000000000000000000008152600401611b3d90613b96565b60405180910390fd5b6000428333604051602001611b5d9392919061358f565b604051602081830303815290604052805190602001209050600060405180608001604052808381526020018681526020018481526020018581525090506002600086815260200190815260200160002081908060018154018082558091505060019003906000526020600020906004020160009091909190915060008201518160000155602082015181600101556040820151816002019081611c009190613774565b506060820151816003019081611c169190613774565b5050505050505050565b6000602052806000526040600020600091509050806000018054611c4390613399565b80601f0160208091040260200160405190810160405280929190818152602001828054611c6f90613399565b8015611cbc5780601f10611c9157610100808354040283529160200191611cbc565b820191906000526020600020905b815481529060010190602001808311611c9f57829003601f168201915b505050505090806001018054611cd190613399565b80601f0160208091040260200160405190810160405280929190818152602001828054611cfd90613399565b8015611d4a5780601f10611d1f57610100808354040283529160200191611d4a565b820191906000526020600020905b815481529060010190602001808311611d2d57829003601f168201915b5050505050908060020154908060030154908060040160009054906101000a900460ff16905085565b60606000803373ffffffffffffffffffffffffffffffffffffffff1673ffffffffffffffffffffffffffffffffffffffff16815260200190815260200160002060040160009054906101000a900460ff16611e03576040517f08c379a0000000000000000000000000000000000000000000000000000000008152600401611dfa906132b8565b60405180910390fd5b6000600160003373ffffffffffffffffffffffffffffffffffffffff1673ffffffffffffffffffffffffffffffffffffffff16815260200190815260200160002090506000600167ffffffffffffffff811115611e6357611e62612a3d565b5b604051908082528060200260200182016040528015611e9c57816020015b611e896125c6565b815260200190600190039081611e815790505b50905060005b82805490508110156123f75784838281548110611ec257611ec16132d8565b5b906000526020600020906006020160000154036123ea576000838281548110611eee57611eed6132d8565b5b9060005260206000209060060201905060008060008360010160009054906101000a900473ffffffffffffffffffffffffffffffffffffffff1673ffffffffffffffffffffffffffffffffffffffff1673ffffffffffffffffffffffffffffffffffffffff1681526020019081526020016000209050600060026000846000015481526020019081526020016000209050604051806101200160405280846000015481526020018460010160009054906101000a900473ffffffffffffffffffffffffffffffffffffffff1673ffffffffffffffffffffffffffffffffffffffff168152602001836000018054611fe490613399565b80601f016020809104026020016040519081016040528092919081815260200182805461201090613399565b801561205d5780601f106120325761010080835404028352916020019161205d565b820191906000526020600020905b81548152906001019060200180831161204057829003601f168201915b5050505050815260200183600101805461207690613399565b80601f01602080910402602001604051908101604052809291908181526020018280546120a290613399565b80156120ef5780601f106120c4576101008083540402835291602001916120ef565b820191906000526020600020905b8154815290600101906020018083116120d257829003601f168201915b5050505050815260200184600201805461210890613399565b80601f016020809104026020016040519081016040528092919081815260200182805461213490613399565b80156121815780601f1061215657610100808354040283529160200191612181565b820191906000526020600020905b81548152906001019060200180831161216457829003601f168201915b5050505050815260200184600301805461219a90613399565b80601f01602080910402602001604051908101604052809291908181526020018280546121c690613399565b80156122135780601f106121e857610100808354040283529160200191612213565b820191906000526020600020905b8154815290600101906020018083116121f657829003601f168201915b50505050508152602001846004015481526020018460050154815260200182805480602002602001604051908101604052809291908181526020016000905b828210156123bc5783829060005260206000209060040201604051806080016040529081600082015481526020016001820154815260200160028201805461229990613399565b80601f01602080910402602001604051908101604052809291908181526020018280546122c590613399565b80156123125780601f106122e757610100808354040283529160200191612312565b820191906000526020600020905b8154815290600101906020018083116122f557829003601f168201915b5050505050815260200160038201805461232b90613399565b80601f016020809104026020016040519081016040528092919081815260200182805461235790613399565b80156123a45780601f10612379576101008083540402835291602001916123a4565b820191906000526020600020905b81548152906001019060200180831161238757829003601f168201915b50505050508152505081526020019060010190612252565b50505050815250856000815181106123d7576123d66132d8565b5b60200260200101819052505050506123f7565b8080600101915050611ea2565b508092505050919050565b60008060003373ffffffffffffffffffffffffffffffffffffffff1673ffffffffffffffffffffffffffffffffffffffff16815260200190815260200160002060040160009054906101000a900460ff16156124615760019050612466565b600090505b90565b6002602052816000526040600020818154811061248557600080fd5b9060005260206000209060040201600091509150508060000154908060010154908060020180546124b590613399565b80601f01602080910402602001604051908101604052809291908181526020018280546124e190613399565b801561252e5780601f106125035761010080835404028352916020019161252e565b820191906000526020600020905b81548152906001019060200180831161251157829003601f168201915b50505050509080600301805461254390613399565b80601f016020809104026020016040519081016040528092919081815260200182805461256f90613399565b80156125bc5780601f10612591576101008083540402835291602001916125bc565b820191906000526020600020905b81548152906001019060200180831161259f57829003601f168201915b5050505050905084565b60405180610120016040528060008019168152602001600073ffffffffffffffffffffffffffffffffffffffff168152602001606081526020016060815260200160608152602001606081526020016000815260200160008152602001606081525090565b600081519050919050565b600082825260208201905092915050565b6000819050602082019050919050565b6000819050919050565b61266a81612657565b82525050565b600073ffffffffffffffffffffffffffffffffffffffff82169050919050565b600061269b82612670565b9050919050565b6126ab81612690565b82525050565b600081519050919050565b600082825260208201905092915050565b60005b838110156126eb5780820151818401526020810190506126d0565b60008484015250505050565b6000601f19601f8301169050919050565b6000612713826126b1565b61271d81856126bc565b935061272d8185602086016126cd565b612736816126f7565b840191505092915050565b6000819050919050565b61275481612741565b82525050565b600081519050919050565b600082825260208201905092915050565b6000819050602082019050919050565b600060808301600083015161279e6000860182612661565b5060208301516127b16020860182612661565b50604083015184820360408601526127c98282612708565b915050606083015184820360608601526127e38282612708565b9150508091505092915050565b60006127fc8383612786565b905092915050565b6000602082019050919050565b600061281c8261275a565b6128268185612765565b93508360208202850161283885612776565b8060005b85811015612874578484038952815161285585826127f0565b945061286083612804565b925060208a0199505060018101905061283c565b50829750879550505050505092915050565b60006101208301600083015161289f6000860182612661565b5060208301516128b260208601826126a2565b50604083015184820360408601526128ca8282612708565b915050606083015184820360608601526128e48282612708565b915050608083015184820360808601526128fe8282612708565b91505060a083015184820360a08601526129188282612708565b91505060c083015161292d60c086018261274b565b5060e083015161294060e086018261274b565b5061010083015184820361010086015261295a8282612811565b9150508091505092915050565b60006129738383612886565b905092915050565b6000602082019050919050565b60006129938261262b565b61299d8185612636565b9350836020820285016129af85612647565b8060005b858110156129eb57848403895281516129cc8582612967565b94506129d78361297b565b925060208a019950506001810190506129b3565b50829750879550505050505092915050565b60006020820190508181036000830152612a178184612988565b905092915050565b6000604051905090565b600080fd5b600080fd5b600080fd5b600080fd5b7f4e487b7100000000000000000000000000000000000000000000000000000000600052604160045260246000fd5b612a75826126f7565b810181811067ffffffffffffffff82111715612a9457612a93612a3d565b5b80604052505050565b6000612aa7612a1f565b9050612ab38282612a6c565b919050565b600067ffffffffffffffff821115612ad357612ad2612a3d565b5b612adc826126f7565b9050602081019050919050565b82818337600083830152505050565b6000612b0b612b0684612ab8565b612a9d565b905082815260208101848484011115612b2757612b26612a38565b5b612b32848285612ae9565b509392505050565b600082601f830112612b4f57612b4e612a33565b5b8135612b5f848260208601612af8565b91505092915050565b60008060408385031215612b7f57612b7e612a29565b5b600083013567ffffffffffffffff811115612b9d57612b9c612a2e565b5b612ba985828601612b3a565b925050602083013567ffffffffffffffff811115612bca57612bc9612a2e565b5b612bd685828601612b3a565b9150509250929050565b6000612beb82612670565b9050919050565b612bfb81612be0565b8114612c0657600080fd5b50565b600081359050612c1881612bf2565b92915050565b600060208284031215612c3457612c33612a29565b5b6000612c4284828501612c09565b91505092915050565b612c5481612741565b8114612c5f57600080fd5b50565b600081359050612c7181612c4b565b92915050565b600060208284031215612c8d57612c8c612a29565b5b6000612c9b84828501612c62565b91505092915050565b612cad81612690565b82525050565b6000602082019050612cc86000830184612ca4565b92915050565b612cd781612690565b8114612ce257600080fd5b50565b600081359050612cf481612cce565b92915050565b60008060408385031215612d1157612d10612a29565b5b6000612d1f85828601612ce5565b9250506020612d3085828601612c62565b9150509250929050565b612d4381612657565b82525050565b600082825260208201905092915050565b6000612d65826126b1565b612d6f8185612d49565b9350612d7f8185602086016126cd565b612d88816126f7565b840191505092915050565b612d9c81612741565b82525050565b600060c082019050612db76000830189612d3a565b612dc46020830188612ca4565b8181036040830152612dd68187612d5a565b90508181036060830152612dea8186612d5a565b9050612df96080830185612d93565b612e0660a0830184612d93565b979650505050505050565b612e1a81612657565b8114612e2557600080fd5b50565b600081359050612e3781612e11565b92915050565b60008060408385031215612e5457612e53612a29565b5b6000612e6285828601612e28565b9250506020612e7385828601612ce5565b9150509250929050565b600060208284031215612e9357612e92612a29565b5b6000612ea184828501612ce5565b91505092915050565b60008115159050919050565b612ebf81612eaa565b82525050565b600060a0820190508181036000830152612edf8188612d5a565b90508181036020830152612ef38187612d5a565b9050612f026040830186612d93565b612f0f6060830185612d93565b612f1c6080830184612eb6565b9695505050505050565b600081519050919050565b600082825260208201905092915050565b6000819050602082019050919050565b600060c083016000830151612f6a6000860182612661565b506020830151612f7d60208601826126a2565b5060408301518482036040860152612f958282612708565b91505060608301518482036060860152612faf8282612708565b9150506080830151612fc4608086018261274b565b5060a0830151612fd760a086018261274b565b508091505092915050565b6000612fee8383612f52565b905092915050565b6000602082019050919050565b600061300e82612f26565b6130188185612f31565b93508360208202850161302a85612f42565b8060005b8581101561306657848403895281516130478582612fe2565b945061305283612ff6565b925060208a0199505060018101905061302e565b50829750879550505050505092915050565b600060208201905081810360008301526130928184613003565b905092915050565b6000806000606084860312156130b3576130b2612a29565b5b60006130c186828701612e28565b935050602084013567ffffffffffffffff8111156130e2576130e1612a2e565b5b6130ee86828701612b3a565b925050604084013567ffffffffffffffff81111561310f5761310e612a2e565b5b61311b86828701612b3a565b9150509250925092565b60006020828403121561313b5761313a612a29565b5b600061314984828501612e28565b91505092915050565b60006020820190506131676000830184612eb6565b92915050565b6000806040838503121561318457613183612a29565b5b600061319285828601612e28565b92505060206131a385828601612c62565b9150509250929050565b60006080820190506131c26000830187612d3a565b6131cf6020830186612d3a565b81810360408301526131e18185612d5a565b905081810360608301526131f58184612d5a565b905095945050505050565b7f5573657220646f6573206e6f7420657869737473000000000000000000000000600082015250565b6000613236601483612d49565b915061324182613200565b602082019050919050565b6000602082019050818103600083015261326581613229565b9050919050565b7f506c65617365206372656174652075736572206163636f756e74000000000000600082015250565b60006132a2601a83612d49565b91506132ad8261326c565b602082019050919050565b600060208201905081810360008301526132d181613295565b9050919050565b7f4e487b7100000000000000000000000000000000000000000000000000000000600052603260045260246000fd5b7f4e487b7100000000000000000000000000000000000000000000000000000000600052601160045260246000fd5b600061334182612741565b915061334c83612741565b925082820190508082111561336457613363613307565b5b92915050565b7f4e487b7100000000000000000000000000000000000000000000000000000000600052602260045260246000fd5b600060028204905060018216806133b157607f821691505b6020821081036133c4576133c361336a565b5b50919050565b60006133d582612741565b91507fffffffffffffffffffffffffffffffffffffffffffffffffffffffffffffffff820361340757613406613307565b5b600182019050919050565b7f436f6e74656e7420747970652063616e6e6f7420626520656d70747900000000600082015250565b6000613448601c83612d49565b915061345382613412565b602082019050919050565b600060208201905081810360008301526134778161343b565b9050919050565b7f436f6e74656e742063616e6e6f7420626520656d707479000000000000000000600082015250565b60006134b4601783612d49565b91506134bf8261347e565b602082019050919050565b600060208201905081810360008301526134e3816134a7565b9050919050565b6000819050919050565b61350561350082612741565b6134ea565b82525050565b600081905092915050565b6000613521826126b1565b61352b818561350b565b935061353b8185602086016126cd565b80840191505092915050565b60008160601b9050919050565b600061355f82613547565b9050919050565b600061357182613554565b9050919050565b61358961358482612690565b613566565b82525050565b600061359b82866134f4565b6020820191506135ab8285613516565b91506135b78284613578565b601482019150819050949350505050565b60008190508160005260206000209050919050565b60006020601f8301049050919050565b600082821b905092915050565b60006008830261362a7fffffffffffffffffffffffffffffffffffffffffffffffffffffffffffffffff826135ed565b61363486836135ed565b95508019841693508086168417925050509392505050565b6000819050919050565b600061367161366c61366784612741565b61364c565b612741565b9050919050565b6000819050919050565b61368b83613656565b61369f61369782613678565b8484546135fa565b825550505050565b600090565b6136b46136a7565b6136bf818484613682565b505050565b5b818110156136e3576136d86000826136ac565b6001810190506136c5565b5050565b601f821115613728576136f9816135c8565b613702846135dd565b81016020851015613711578190505b61372561371d856135dd565b8301826136c4565b50505b505050565b600082821c905092915050565b600061374b6000198460080261372d565b1980831691505092915050565b6000613764838361373a565b9150826002028217905092915050565b61377d826126b1565b67ffffffffffffffff81111561379657613795612a3d565b5b6137a08254613399565b6137ab8282856136e7565b600060209050601f8311600181146137de57600084156137cc578287015190505b6137d68582613758565b86555061383e565b601f1984166137ec866135c8565b60005b82811015613814578489015182556001820191506020850194506020810190506137ef565b86831015613831578489015161382d601f89168261373a565b8355505b6001600288020188555050505b505050505050565b7f496e76616c696420726563697069656e74206164647265737300000000000000600082015250565b600061387c601983612d49565b915061388782613846565b602082019050919050565b600060208201905081810360008301526138ab8161386f565b9050919050565b7f496e76616c696420616d6f756e74000000000000000000000000000000000000600082015250565b60006138e8600e83612d49565b91506138f3826138b2565b602082019050919050565b60006020820190508181036000830152613917816138db565b9050919050565b6000819050919050565b600061394361393e6139398461391e565b61364c565b612741565b9050919050565b61395381613928565b82525050565b600060208201905061396e600083018461394a565b92915050565b7f557365726e616d652063616e6e6f7420626520656d7074790000000000000000600082015250565b60006139aa601883612d49565b91506139b582613974565b602082019050919050565b600060208201905081810360008301526139d98161399d565b9050919050565b7f5573657220616c72656164792065786973747300000000000000000000000000600082015250565b6000613a16601383612d49565b9150613a21826139e0565b602082019050919050565b60006020820190508181036000830152613a4581613a09565b9050919050565b7f496e76616c696420616464726573730000000000000000000000000000000000600082015250565b6000613a82600f83612d49565b9150613a8d82613a4c565b602082019050919050565b60006020820190508181036000830152613ab181613a75565b9050919050565b7f506c65617365206c6f67696e20746f2061636365737320796f75722070726f6660008201527f696c652e2e2e2e00000000000000000000000000000000000000000000000000602082015250565b6000613b14602783612d49565b9150613b1f82613ab8565b604082019050919050565b60006020820190508181036000830152613b4381613b07565b9050919050565b7f436f6d6d656e742063616e6e6f7420626520656d707479000000000000000000600082015250565b6000613b80601783612d49565b9150613b8b82613b4a565b602082019050919050565b60006020820190508181036000830152613baf81613b73565b905091905056fea26469706673582212209f3fd32c74b1fa4a9946d768cee0f0fa99e956436b4c4a4e5c5d06a432bf345164736f6c63430008180033",
  "linkReferences": {},
  "deployedLinkReferences": {}
}