{
  "_format": "hh-sol-artifact-1",
  "contractName": "SocialMedia",
  "sourceName": "contracts/SocialMedia.sol",
  "abi": [
    {
      "anonymous": false,
      "inputs": [
        {
          "indexed": true,
          "internalType": "address",
          "name": "from",
          "type": "address"
        },
        {
          "indexed": true,
          "internalType": "address",
          "name": "to",
          "type": "address"
        },
        {
          "indexed": false,
          "internalType": "uint256",
          "name": "amount",
          "type": "uint256"
        }
      ],
      "name": "Reward",
      "type": "event"
    },
    {
      "inputs": [
        {
          "internalType": "bytes32",
          "name": "_postId",
          "type": "bytes32"
        },
        {
          "internalType": "string",
          "name": "_comment",
          "type": "string"
        },
        {
          "internalType": "string",
          "name": "username",
          "type": "string"
        }
      ],
      "name": "addComment",
      "outputs": [],
      "stateMutability": "nonpayable",
      "type": "function"
    },
    {
      "inputs": [
        {
          "internalType": "bytes32",
          "name": "",
          "type": "bytes32"
        },
        {
          "internalType": "uint256",
          "name": "",
          "type": "uint256"
        }
      ],
      "name": "comments",
      "outputs": [
        {
          "internalType": "bytes32",
          "name": "id",
          "type": "bytes32"
        },
        {
          "internalType": "bytes32",
          "name": "postId",
          "type": "bytes32"
        },
        {
          "internalType": "string",
          "name": "owner",
          "type": "string"
        },
        {
          "internalType": "string",
          "name": "content",
          "type": "string"
        }
      ],
      "stateMutability": "view",
      "type": "function"
    },
    {
      "inputs": [
        {
          "internalType": "string",
          "name": "_contentType",
          "type": "string"
        },
        {
          "internalType": "string",
          "name": "_content",
          "type": "string"
        }
      ],
      "name": "createPost",
      "outputs": [],
      "stateMutability": "nonpayable",
      "type": "function"
    },
    {
      "inputs": [
        {
          "internalType": "string",
          "name": "_username",
          "type": "string"
        },
        {
          "internalType": "string",
          "name": "_photoUrl",
          "type": "string"
        }
      ],
      "name": "createUser",
      "outputs": [],
      "stateMutability": "nonpayable",
      "type": "function"
    },
    {
      "inputs": [],
      "name": "getAllPosts",
      "outputs": [
        {
          "components": [
            {
              "internalType": "bytes32",
              "name": "id",
              "type": "bytes32"
            },
            {
              "internalType": "address",
              "name": "owner",
              "type": "address"
            },
            {
              "internalType": "string",
              "name": "ownerUsername",
              "type": "string"
            },
            {
              "internalType": "string",
              "name": "ownerPhotoUrl",
              "type": "string"
            },
            {
              "internalType": "string",
              "name": "contentType",
              "type": "string"
            },
            {
              "internalType": "string",
              "name": "content",
              "type": "string"
            },
            {
              "internalType": "uint256",
              "name": "likes",
              "type": "uint256"
            },
            {
              "internalType": "uint256",
              "name": "timestamp",
              "type": "uint256"
            },
            {
              "components": [
                {
                  "internalType": "bytes32",
                  "name": "id",
                  "type": "bytes32"
                },
                {
                  "internalType": "bytes32",
                  "name": "postId",
                  "type": "bytes32"
                },
                {
                  "internalType": "string",
                  "name": "owner",
                  "type": "string"
                },
                {
                  "internalType": "string",
                  "name": "content",
                  "type": "string"
                }
              ],
              "internalType": "struct SocialMedia.Comment[]",
              "name": "comment",
              "type": "tuple[]"
            }
          ],
          "internalType": "struct SocialMedia.PostWithOwner[]",
          "name": "",
          "type": "tuple[]"
        }
      ],
      "stateMutability": "view",
      "type": "function"
    },
    {
      "inputs": [
        {
          "internalType": "bytes32",
          "name": "_postId",
          "type": "bytes32"
        }
      ],
      "name": "getPostDetails",
      "outputs": [
        {
          "components": [
            {
              "internalType": "bytes32",
              "name": "id",
              "type": "bytes32"
            },
            {
              "internalType": "address",
              "name": "owner",
              "type": "address"
            },
            {
              "internalType": "string",
              "name": "ownerUsername",
              "type": "string"
            },
            {
              "internalType": "string",
              "name": "ownerPhotoUrl",
              "type": "string"
            },
            {
              "internalType": "string",
              "name": "contentType",
              "type": "string"
            },
            {
              "internalType": "string",
              "name": "content",
              "type": "string"
            },
            {
              "internalType": "uint256",
              "name": "likes",
              "type": "uint256"
            },
            {
              "internalType": "uint256",
              "name": "timestamp",
              "type": "uint256"
            },
            {
              "components": [
                {
                  "internalType": "bytes32",
                  "name": "id",
                  "type": "bytes32"
                },
                {
                  "internalType": "bytes32",
                  "name": "postId",
                  "type": "bytes32"
                },
                {
                  "internalType": "string",
                  "name": "owner",
                  "type": "string"
                },
                {
                  "internalType": "string",
                  "name": "content",
                  "type": "string"
                }
              ],
              "internalType": "struct SocialMedia.Comment[]",
              "name": "comment",
              "type": "tuple[]"
            }
          ],
          "internalType": "struct SocialMedia.PostWithOwner[]",
          "name": "",
          "type": "tuple[]"
        }
      ],
      "stateMutability": "view",
      "type": "function"
    },
    {
      "inputs": [
        {
          "internalType": "address",
          "name": "_userAddress",
          "type": "address"
        }
      ],
      "name": "getUserPosts",
      "outputs": [
        {
          "components": [
            {
              "internalType": "bytes32",
              "name": "id",
              "type": "bytes32"
            },
            {
              "internalType": "address",
              "name": "owner",
              "type": "address"
            },
            {
              "internalType": "string",
              "name": "contentType",
              "type": "string"
            },
            {
              "internalType": "string",
              "name": "content",
              "type": "string"
            },
            {
              "internalType": "uint256",
              "name": "likes",
              "type": "uint256"
            },
            {
              "internalType": "uint256",
              "name": "timestamp",
              "type": "uint256"
            }
          ],
          "internalType": "struct SocialMedia.Post[]",
          "name": "",
          "type": "tuple[]"
        }
      ],
      "stateMutability": "view",
      "type": "function"
    },
    {
      "inputs": [
        {
          "internalType": "address",
          "name": "_userAddress",
          "type": "address"
        }
      ],
      "name": "getUserProfile",
      "outputs": [
        {
          "internalType": "string",
          "name": "",
          "type": "string"
        },
        {
          "internalType": "string",
          "name": "",
          "type": "string"
        },
        {
          "internalType": "uint256",
          "name": "",
          "type": "uint256"
        },
        {
          "internalType": "uint256",
          "name": "",
          "type": "uint256"
        },
        {
          "internalType": "bool",
          "name": "",
          "type": "bool"
        }
      ],
      "stateMutability": "view",
      "type": "function"
    },
    {
      "inputs": [
        {
          "internalType": "bytes32",
          "name": "_postId",
          "type": "bytes32"
        },
        {
          "internalType": "address",
          "name": "userAddress",
          "type": "address"
        }
      ],
      "name": "likePost",
      "outputs": [],
      "stateMutability": "nonpayable",
      "type": "function"
    },
    {
      "inputs": [],
      "name": "login",
      "outputs": [
        {
          "internalType": "bool",
          "name": "",
          "type": "bool"
        }
      ],
      "stateMutability": "view",
      "type": "function"
    },
    {
      "inputs": [],
      "name": "logout",
      "outputs": [],
      "stateMutability": "nonpayable",
      "type": "function"
    },
    {
      "inputs": [
        {
          "internalType": "address",
          "name": "",
          "type": "address"
        },
        {
          "internalType": "uint256",
          "name": "",
          "type": "uint256"
        }
      ],
      "name": "posts",
      "outputs": [
        {
          "internalType": "bytes32",
          "name": "id",
          "type": "bytes32"
        },
        {
          "internalType": "address",
          "name": "owner",
          "type": "address"
        },
        {
          "internalType": "string",
          "name": "contentType",
          "type": "string"
        },
        {
          "internalType": "string",
          "name": "content",
          "type": "string"
        },
        {
          "internalType": "uint256",
          "name": "likes",
          "type": "uint256"
        },
        {
          "internalType": "uint256",
          "name": "timestamp",
          "type": "uint256"
        }
      ],
      "stateMutability": "view",
      "type": "function"
    },
    {
      "inputs": [
        {
          "internalType": "address payable",
          "name": "_to",
          "type": "address"
        },
        {
          "internalType": "uint256",
          "name": "_amount",
          "type": "uint256"
        }
      ],
      "name": "rewardEngagement",
      "outputs": [],
      "stateMutability": "payable",
      "type": "function"
    },
    {
      "inputs": [
        {
          "internalType": "uint256",
          "name": "",
          "type": "uint256"
        }
      ],
      "name": "userAddresses",
      "outputs": [
        {
          "internalType": "address",
          "name": "",
          "type": "address"
        }
      ],
      "stateMutability": "view",
      "type": "function"
    },
    {
      "inputs": [
        {
          "internalType": "address",
          "name": "",
          "type": "address"
        }
      ],
      "name": "users",
      "outputs": [
        {
          "internalType": "string",
          "name": "username",
          "type": "string"
        },
        {
          "internalType": "string",
          "name": "photoUrl",
          "type": "string"
        },
        {
          "internalType": "uint256",
          "name": "points",
          "type": "uint256"
        },
        {
          "internalType": "uint256",
          "name": "interactionTime",
          "type": "uint256"
        },
        {
          "internalType": "bool",
          "name": "isLoggedIn",
          "type": "bool"
        }
      ],
      "stateMutability": "view",
      "type": "function"
    }
  ],
  "bytecode": "0x608060405234801561001057600080fd5b50613c0c806100206000396000f3fe6080604052600436106100e85760003560e01c806387b162b51161008a578063a87430ba11610059578063a87430ba146102ec578063a9263d1e1461032d578063b34e97e81461036a578063d299788014610395576100e8565b806387b162b51461021c578063987ee156146102455780639a2194a914610286578063a7503db2146102c3576100e8565b8063392338f5116100c6578063392338f51461014b578063502c9bd5146101745780635c538df3146101b15780636a50931a146101f3576100e8565b80631f3c99c3146100ed5780632d10959c146101045780633056110014610120575b600080fd5b3480156100f957600080fd5b506101026103d5565b005b61011e600480360381019061011991906126e0565b6104bf565b005b34801561012c57600080fd5b506101356105c8565b6040516101429190612ac8565b60405180910390f35b34801561015757600080fd5b50610172600480360381019061016d9190612c1f565b610d49565b005b34801561018057600080fd5b5061019b60048036038101906101969190612c97565b610fd2565b6040516101a89190612cd3565b60405180910390f35b3480156101bd57600080fd5b506101d860048036038101906101d39190612d1a565b611011565b6040516101ea96959493929190612dc2565b60405180910390f35b3480156101ff57600080fd5b5061021a60048036038101906102159190612e5d565b61119a565b005b34801561022857600080fd5b50610243600480360381019061023e9190612c1f565b6113fc565b005b34801561025157600080fd5b5061026c60048036038101906102679190612e9d565b611602565b60405161027d959493929190612ee5565b60405180910390f35b34801561029257600080fd5b506102ad60048036038101906102a89190612e9d565b6118d3565b6040516102ba9190613098565b60405180910390f35b3480156102cf57600080fd5b506102ea60048036038101906102e591906130ba565b611b0f565b005b3480156102f857600080fd5b50610313600480360381019061030e9190612e9d565b611c2d565b604051610324959493929190612ee5565b60405180910390f35b34801561033957600080fd5b50610354600480360381019061034f9190613145565b611d80565b6040516103619190612ac8565b60405180910390f35b34801561037657600080fd5b5061037f61240f565b60405161038c9190613172565b60405180910390f35b3480156103a157600080fd5b506103bc60048036038101906103b7919061318d565b612476565b6040516103cc94939291906131cd565b60405180910390f35b6000803373ffffffffffffffffffffffffffffffffffffffff1673ffffffffffffffffffffffffffffffffffffffff16815260200190815260200160002060040160009054906101000a900460ff16610463576040517f08c379a000000000000000000000000000000000000000000000000000000000815260040161045a9061326c565b60405180910390fd5b60008060003373ffffffffffffffffffffffffffffffffffffffff1673ffffffffffffffffffffffffffffffffffffffff16815260200190815260200160002060040160006101000a81548160ff021916908315150217905550565b600073ffffffffffffffffffffffffffffffffffffffff168273ffffffffffffffffffffffffffffffffffffffff160361052e576040517f08c379a0000000000000000000000000000000000000000000000000000000008152600401610525906132d8565b60405180910390fd5b60008111801561053e5750348111155b61057d576040517f08c379a000000000000000000000000000000000000000000000000000000000815260040161057490613344565b60405180910390fd5b8173ffffffffffffffffffffffffffffffffffffffff166108fc829081150290604051600060405180830381858888f193505050501580156105c3573d6000803e3d6000fd5b505050565b60606000803373ffffffffffffffffffffffffffffffffffffffff1673ffffffffffffffffffffffffffffffffffffffff16815260200190815260200160002060040160009054906101000a900460ff16610658576040517f08c379a000000000000000000000000000000000000000000000000000000000815260040161064f906133b0565b60405180910390fd5b6000805b60038054905081101561070a5760006003828154811061067f5761067e6133d0565b5b9060005260206000200160009054906101000a900473ffffffffffffffffffffffffffffffffffffffff169050600160008273ffffffffffffffffffffffffffffffffffffffff1673ffffffffffffffffffffffffffffffffffffffff16815260200190815260200160002080549050836106fa919061342e565b925050808060010191505061065c565b5060008167ffffffffffffffff81111561072757610726612af4565b5b60405190808252806020026020018201604052801561076057816020015b61074d6125d3565b8152602001906001900390816107455790505b5090506000805b600380549050811015610d3f5760006003828154811061078a576107896133d0565b5b9060005260206000200160009054906101000a900473ffffffffffffffffffffffffffffffffffffffff1690506000600160008373ffffffffffffffffffffffffffffffffffffffff1673ffffffffffffffffffffffffffffffffffffffff168152602001908152602001600020905060005b8180549050811015610d2f57600082828154811061081e5761081d6133d0565b5b9060005260206000209060060201905060008060008360010160009054906101000a900473ffffffffffffffffffffffffffffffffffffffff1673ffffffffffffffffffffffffffffffffffffffff1673ffffffffffffffffffffffffffffffffffffffff1681526020019081526020016000209050600060026000846000015481526020019081526020016000209050604051806101200160405280846000015481526020018460010160009054906101000a900473ffffffffffffffffffffffffffffffffffffffff1673ffffffffffffffffffffffffffffffffffffffff16815260200183600001805461091490613491565b80601f016020809104026020016040519081016040528092919081815260200182805461094090613491565b801561098d5780601f106109625761010080835404028352916020019161098d565b820191906000526020600020905b81548152906001019060200180831161097057829003601f168201915b505050505081526020018360010180546109a690613491565b80601f01602080910402602001604051908101604052809291908181526020018280546109d290613491565b8015610a1f5780601f106109f457610100808354040283529160200191610a1f565b820191906000526020600020905b815481529060010190602001808311610a0257829003601f168201915b50505050508152602001846002018054610a3890613491565b80601f0160208091040260200160405190810160405280929190818152602001828054610a6490613491565b8015610ab15780601f10610a8657610100808354040283529160200191610ab1565b820191906000526020600020905b815481529060010190602001808311610a9457829003601f168201915b50505050508152602001846003018054610aca90613491565b80601f0160208091040260200160405190810160405280929190818152602001828054610af690613491565b8015610b435780601f10610b1857610100808354040283529160200191610b43565b820191906000526020600020905b815481529060010190602001808311610b2657829003601f168201915b50505050508152602001846004015481526020018460050154815260200182805480602002602001604051908101604052809291908181526020016000905b82821015610cec57838290600052602060002090600402016040518060800160405290816000820154815260200160018201548152602001600282018054610bc990613491565b80601f0160208091040260200160405190810160405280929190818152602001828054610bf590613491565b8015610c425780601f10610c1757610100808354040283529160200191610c42565b820191906000526020600020905b815481529060010190602001808311610c2557829003601f168201915b50505050508152602001600382018054610c5b90613491565b80601f0160208091040260200160405190810160405280929190818152602001828054610c8790613491565b8015610cd45780601f10610ca957610100808354040283529160200191610cd4565b820191906000526020600020905b815481529060010190602001808311610cb757829003601f168201915b50505050508152505081526020019060010190610b82565b50505050815250898981518110610d0657610d056133d0565b5b60200260200101819052508780610d1c906134c2565b98505050505080806001019150506107fd565b5050508080600101915050610767565b5081935050505090565b6000803373ffffffffffffffffffffffffffffffffffffffff1673ffffffffffffffffffffffffffffffffffffffff16815260200190815260200160002060040160009054906101000a900460ff16610dd7576040517f08c379a0000000000000000000000000000000000000000000000000000000008152600401610dce906133b0565b60405180910390fd5b6000825111610e1b576040517f08c379a0000000000000000000000000000000000000000000000000000000008152600401610e1290613556565b60405180910390fd5b6000815111610e5f576040517f08c379a0000000000000000000000000000000000000000000000000000000008152600401610e56906135c2565b60405180910390fd5b6000428233604051602001610e7693929190613687565b604051602081830303815290604052805190602001209050600160003373ffffffffffffffffffffffffffffffffffffffff1673ffffffffffffffffffffffffffffffffffffffff1681526020019081526020016000206040518060c001604052808381526020013373ffffffffffffffffffffffffffffffffffffffff168152602001858152602001848152602001600081526020014281525090806001815401808255809150506001900390600052602060002090600602016000909190919091506000820151816000015560208201518160010160006101000a81548173ffffffffffffffffffffffffffffffffffffffff021916908373ffffffffffffffffffffffffffffffffffffffff1602179055506040820151816002019081610fa0919061386c565b506060820151816003019081610fb6919061386c565b506080820151816004015560a082015181600501555050505050565b60038181548110610fe257600080fd5b906000526020600020016000915054906101000a900473ffffffffffffffffffffffffffffffffffffffff1681565b6001602052816000526040600020818154811061102d57600080fd5b9060005260206000209060060201600091509150508060000154908060010160009054906101000a900473ffffffffffffffffffffffffffffffffffffffff169080600201805461107d90613491565b80601f01602080910402602001604051908101604052809291908181526020018280546110a990613491565b80156110f65780601f106110cb576101008083540402835291602001916110f6565b820191906000526020600020905b8154815290600101906020018083116110d957829003601f168201915b50505050509080600301805461110b90613491565b80601f016020809104026020016040519081016040528092919081815260200182805461113790613491565b80156111845780601f1061115957610100808354040283529160200191611184565b820191906000526020600020905b81548152906001019060200180831161116757829003601f168201915b5050505050908060040154908060050154905086565b6000803373ffffffffffffffffffffffffffffffffffffffff1673ffffffffffffffffffffffffffffffffffffffff16815260200190815260200160002060040160009054906101000a900460ff16611228576040517f08c379a000000000000000000000000000000000000000000000000000000000815260040161121f906133b0565b60405180910390fd5b6000600160008373ffffffffffffffffffffffffffffffffffffffff1673ffffffffffffffffffffffffffffffffffffffff168152602001908152602001600020905060005b81805490508110156113f6578382828154811061128e5761128d6133d0565b5b906000526020600020906006020160000154036113e9578181815481106112b8576112b76133d0565b5b906000526020600020906006020160040160008154809291906112da906134c2565b919050555060008282815481106112f4576112f36133d0565b5b906000526020600020906006020160010160009054906101000a900473ffffffffffffffffffffffffffffffffffffffff16905060016000808373ffffffffffffffffffffffffffffffffffffffff1673ffffffffffffffffffffffffffffffffffffffff168152602001908152602001600020600201600082825461137a919061342e565b925050819055508073ffffffffffffffffffffffffffffffffffffffff163373ffffffffffffffffffffffffffffffffffffffff167f6b053894d8fdbdcc936dd753e21291f0c48e68ef12306eb39a63a374147ba4bd60016040516113df9190613979565b60405180910390a3505b808060010191505061126e565b50505050565b6000825111611440576040517f08c379a0000000000000000000000000000000000000000000000000000000008152600401611437906139e0565b60405180910390fd5b6000803373ffffffffffffffffffffffffffffffffffffffff1673ffffffffffffffffffffffffffffffffffffffff16815260200190815260200160002060040160009054906101000a900460ff16156114cf576040517f08c379a00000000000000000000000000000000000000000000000000000000081526004016114c690613a4c565b60405180910390fd5b6040518060a0016040528083815260200182815260200160008152602001428152602001600115158152506000803373ffffffffffffffffffffffffffffffffffffffff1673ffffffffffffffffffffffffffffffffffffffff168152602001908152602001600020600082015181600001908161154d919061386c565b506020820151816001019081611563919061386c565b50604082015181600201556060820151816003015560808201518160040160006101000a81548160ff0219169083151502179055509050506003339080600181540180825580915050600190039060005260206000200160009091909190916101000a81548173ffffffffffffffffffffffffffffffffffffffff021916908373ffffffffffffffffffffffffffffffffffffffff1602179055505050565b60608060008060008073ffffffffffffffffffffffffffffffffffffffff168673ffffffffffffffffffffffffffffffffffffffff1603611678576040517f08c379a000000000000000000000000000000000000000000000000000000000815260040161166f90613ab8565b60405180910390fd5b6000808773ffffffffffffffffffffffffffffffffffffffff1673ffffffffffffffffffffffffffffffffffffffff16815260200190815260200160002060040160009054906101000a900460ff16611706576040517f08c379a00000000000000000000000000000000000000000000000000000000081526004016116fd90613b4a565b60405180910390fd5b60008060008873ffffffffffffffffffffffffffffffffffffffff1673ffffffffffffffffffffffffffffffffffffffff1681526020019081526020016000206040518060a001604052908160008201805461176190613491565b80601f016020809104026020016040519081016040528092919081815260200182805461178d90613491565b80156117da5780601f106117af576101008083540402835291602001916117da565b820191906000526020600020905b8154815290600101906020018083116117bd57829003601f168201915b505050505081526020016001820180546117f390613491565b80601f016020809104026020016040519081016040528092919081815260200182805461181f90613491565b801561186c5780601f106118415761010080835404028352916020019161186c565b820191906000526020600020905b81548152906001019060200180831161184f57829003601f168201915b5050505050815260200160028201548152602001600382015481526020016004820160009054906101000a900460ff161515151581525050905080600001518160200151826040015183606001518460800151955095509550955095505091939590929450565b60606000600160008473ffffffffffffffffffffffffffffffffffffffff1673ffffffffffffffffffffffffffffffffffffffff168152602001908152602001600020805480602002602001604051908101604052809291908181526020016000905b82821015611b0057838290600052602060002090600602016040518060c0016040529081600082015481526020016001820160009054906101000a900473ffffffffffffffffffffffffffffffffffffffff1673ffffffffffffffffffffffffffffffffffffffff1673ffffffffffffffffffffffffffffffffffffffff1681526020016002820180546119c990613491565b80601f01602080910402602001604051908101604052809291908181526020018280546119f590613491565b8015611a425780601f10611a1757610100808354040283529160200191611a42565b820191906000526020600020905b815481529060010190602001808311611a2557829003601f168201915b50505050508152602001600382018054611a5b90613491565b80601f0160208091040260200160405190810160405280929190818152602001828054611a8790613491565b8015611ad45780601f10611aa957610100808354040283529160200191611ad4565b820191906000526020600020905b815481529060010190602001808311611ab757829003601f168201915b505050505081526020016004820154815260200160058201548152505081526020019060010190611936565b50505050905080915050919050565b6000825111611b53576040517f08c379a0000000000000000000000000000000000000000000000000000000008152600401611b4a90613bb6565b60405180910390fd5b6000428333604051602001611b6a93929190613687565b604051602081830303815290604052805190602001209050600060405180608001604052808381526020018681526020018481526020018581525090506002600086815260200190815260200160002081908060018154018082558091505060019003906000526020600020906004020160009091909190915060008201518160000155602082015181600101556040820151816002019081611c0d919061386c565b506060820151816003019081611c23919061386c565b5050505050505050565b6000602052806000526040600020600091509050806000018054611c5090613491565b80601f0160208091040260200160405190810160405280929190818152602001828054611c7c90613491565b8015611cc95780601f10611c9e57610100808354040283529160200191611cc9565b820191906000526020600020905b815481529060010190602001808311611cac57829003601f168201915b505050505090806001018054611cde90613491565b80601f0160208091040260200160405190810160405280929190818152602001828054611d0a90613491565b8015611d575780601f10611d2c57610100808354040283529160200191611d57565b820191906000526020600020905b815481529060010190602001808311611d3a57829003601f168201915b5050505050908060020154908060030154908060040160009054906101000a900460ff16905085565b60606000803373ffffffffffffffffffffffffffffffffffffffff1673ffffffffffffffffffffffffffffffffffffffff16815260200190815260200160002060040160009054906101000a900460ff16611e10576040517f08c379a0000000000000000000000000000000000000000000000000000000008152600401611e07906133b0565b60405180910390fd5b6000600160003373ffffffffffffffffffffffffffffffffffffffff1673ffffffffffffffffffffffffffffffffffffffff16815260200190815260200160002090506000600167ffffffffffffffff811115611e7057611e6f612af4565b5b604051908082528060200260200182016040528015611ea957816020015b611e966125d3565b815260200190600190039081611e8e5790505b50905060005b82805490508110156124045784838281548110611ecf57611ece6133d0565b5b906000526020600020906006020160000154036123f7576000838281548110611efb57611efa6133d0565b5b9060005260206000209060060201905060008060008360010160009054906101000a900473ffffffffffffffffffffffffffffffffffffffff1673ffffffffffffffffffffffffffffffffffffffff1673ffffffffffffffffffffffffffffffffffffffff1681526020019081526020016000209050600060026000846000015481526020019081526020016000209050604051806101200160405280846000015481526020018460010160009054906101000a900473ffffffffffffffffffffffffffffffffffffffff1673ffffffffffffffffffffffffffffffffffffffff168152602001836000018054611ff190613491565b80601f016020809104026020016040519081016040528092919081815260200182805461201d90613491565b801561206a5780601f1061203f5761010080835404028352916020019161206a565b820191906000526020600020905b81548152906001019060200180831161204d57829003601f168201915b5050505050815260200183600101805461208390613491565b80601f01602080910402602001604051908101604052809291908181526020018280546120af90613491565b80156120fc5780601f106120d1576101008083540402835291602001916120fc565b820191906000526020600020905b8154815290600101906020018083116120df57829003601f168201915b5050505050815260200184600201805461211590613491565b80601f016020809104026020016040519081016040528092919081815260200182805461214190613491565b801561218e5780601f106121635761010080835404028352916020019161218e565b820191906000526020600020905b81548152906001019060200180831161217157829003601f168201915b505050505081526020018460030180546121a790613491565b80601f01602080910402602001604051908101604052809291908181526020018280546121d390613491565b80156122205780601f106121f557610100808354040283529160200191612220565b820191906000526020600020905b81548152906001019060200180831161220357829003601f168201915b50505050508152602001846004015481526020018460050154815260200182805480602002602001604051908101604052809291908181526020016000905b828210156123c9578382906000526020600020906004020160405180608001604052908160008201548152602001600182015481526020016002820180546122a690613491565b80601f01602080910402602001604051908101604052809291908181526020018280546122d290613491565b801561231f5780601f106122f45761010080835404028352916020019161231f565b820191906000526020600020905b81548152906001019060200180831161230257829003601f168201915b5050505050815260200160038201805461233890613491565b80601f016020809104026020016040519081016040528092919081815260200182805461236490613491565b80156123b15780601f10612386576101008083540402835291602001916123b1565b820191906000526020600020905b81548152906001019060200180831161239457829003601f168201915b5050505050815250508152602001906001019061225f565b50505050815250856000815181106123e4576123e36133d0565b5b6020026020010181905250505050612404565b8080600101915050611eaf565b508092505050919050565b60008060003373ffffffffffffffffffffffffffffffffffffffff1673ffffffffffffffffffffffffffffffffffffffff16815260200190815260200160002060040160009054906101000a900460ff161561246e5760019050612473565b600090505b90565b6002602052816000526040600020818154811061249257600080fd5b9060005260206000209060040201600091509150508060000154908060010154908060020180546124c290613491565b80601f01602080910402602001604051908101604052809291908181526020018280546124ee90613491565b801561253b5780601f106125105761010080835404028352916020019161253b565b820191906000526020600020905b81548152906001019060200180831161251e57829003601f168201915b50505050509080600301805461255090613491565b80601f016020809104026020016040519081016040528092919081815260200182805461257c90613491565b80156125c95780601f1061259e576101008083540402835291602001916125c9565b820191906000526020600020905b8154815290600101906020018083116125ac57829003601f168201915b5050505050905084565b60405180610120016040528060008019168152602001600073ffffffffffffffffffffffffffffffffffffffff168152602001606081526020016060815260200160608152602001606081526020016000815260200160008152602001606081525090565b6000604051905090565b600080fd5b600080fd5b600073ffffffffffffffffffffffffffffffffffffffff82169050919050565b60006126778261264c565b9050919050565b6126878161266c565b811461269257600080fd5b50565b6000813590506126a48161267e565b92915050565b6000819050919050565b6126bd816126aa565b81146126c857600080fd5b50565b6000813590506126da816126b4565b92915050565b600080604083850312156126f7576126f6612642565b5b600061270585828601612695565b9250506020612716858286016126cb565b9150509250929050565b600081519050919050565b600082825260208201905092915050565b6000819050602082019050919050565b6000819050919050565b61275f8161274c565b82525050565b60006127708261264c565b9050919050565b61278081612765565b82525050565b600081519050919050565b600082825260208201905092915050565b60005b838110156127c05780820151818401526020810190506127a5565b60008484015250505050565b6000601f19601f8301169050919050565b60006127e882612786565b6127f28185612791565b93506128028185602086016127a2565b61280b816127cc565b840191505092915050565b61281f816126aa565b82525050565b600081519050919050565b600082825260208201905092915050565b6000819050602082019050919050565b60006080830160008301516128696000860182612756565b50602083015161287c6020860182612756565b506040830151848203604086015261289482826127dd565b915050606083015184820360608601526128ae82826127dd565b9150508091505092915050565b60006128c78383612851565b905092915050565b6000602082019050919050565b60006128e782612825565b6128f18185612830565b93508360208202850161290385612841565b8060005b8581101561293f578484038952815161292085826128bb565b945061292b836128cf565b925060208a01995050600181019050612907565b50829750879550505050505092915050565b60006101208301600083015161296a6000860182612756565b50602083015161297d6020860182612777565b506040830151848203604086015261299582826127dd565b915050606083015184820360608601526129af82826127dd565b915050608083015184820360808601526129c982826127dd565b91505060a083015184820360a08601526129e382826127dd565b91505060c08301516129f860c0860182612816565b5060e0830151612a0b60e0860182612816565b50610100830151848203610100860152612a2582826128dc565b9150508091505092915050565b6000612a3e8383612951565b905092915050565b6000602082019050919050565b6000612a5e82612720565b612a68818561272b565b935083602082028501612a7a8561273c565b8060005b85811015612ab65784840389528151612a978582612a32565b9450612aa283612a46565b925060208a01995050600181019050612a7e565b50829750879550505050505092915050565b60006020820190508181036000830152612ae28184612a53565b905092915050565b600080fd5b600080fd5b7f4e487b7100000000000000000000000000000000000000000000000000000000600052604160045260246000fd5b612b2c826127cc565b810181811067ffffffffffffffff82111715612b4b57612b4a612af4565b5b80604052505050565b6000612b5e612638565b9050612b6a8282612b23565b919050565b600067ffffffffffffffff821115612b8a57612b89612af4565b5b612b93826127cc565b9050602081019050919050565b82818337600083830152505050565b6000612bc2612bbd84612b6f565b612b54565b905082815260208101848484011115612bde57612bdd612aef565b5b612be9848285612ba0565b509392505050565b600082601f830112612c0657612c05612aea565b5b8135612c16848260208601612baf565b91505092915050565b60008060408385031215612c3657612c35612642565b5b600083013567ffffffffffffffff811115612c5457612c53612647565b5b612c6085828601612bf1565b925050602083013567ffffffffffffffff811115612c8157612c80612647565b5b612c8d85828601612bf1565b9150509250929050565b600060208284031215612cad57612cac612642565b5b6000612cbb848285016126cb565b91505092915050565b612ccd81612765565b82525050565b6000602082019050612ce86000830184612cc4565b92915050565b612cf781612765565b8114612d0257600080fd5b50565b600081359050612d1481612cee565b92915050565b60008060408385031215612d3157612d30612642565b5b6000612d3f85828601612d05565b9250506020612d50858286016126cb565b9150509250929050565b612d638161274c565b82525050565b600082825260208201905092915050565b6000612d8582612786565b612d8f8185612d69565b9350612d9f8185602086016127a2565b612da8816127cc565b840191505092915050565b612dbc816126aa565b82525050565b600060c082019050612dd76000830189612d5a565b612de46020830188612cc4565b8181036040830152612df68187612d7a565b90508181036060830152612e0a8186612d7a565b9050612e196080830185612db3565b612e2660a0830184612db3565b979650505050505050565b612e3a8161274c565b8114612e4557600080fd5b50565b600081359050612e5781612e31565b92915050565b60008060408385031215612e7457612e73612642565b5b6000612e8285828601612e48565b9250506020612e9385828601612d05565b9150509250929050565b600060208284031215612eb357612eb2612642565b5b6000612ec184828501612d05565b91505092915050565b60008115159050919050565b612edf81612eca565b82525050565b600060a0820190508181036000830152612eff8188612d7a565b90508181036020830152612f138187612d7a565b9050612f226040830186612db3565b612f2f6060830185612db3565b612f3c6080830184612ed6565b9695505050505050565b600081519050919050565b600082825260208201905092915050565b6000819050602082019050919050565b600060c083016000830151612f8a6000860182612756565b506020830151612f9d6020860182612777565b5060408301518482036040860152612fb582826127dd565b91505060608301518482036060860152612fcf82826127dd565b9150506080830151612fe46080860182612816565b5060a0830151612ff760a0860182612816565b508091505092915050565b600061300e8383612f72565b905092915050565b6000602082019050919050565b600061302e82612f46565b6130388185612f51565b93508360208202850161304a85612f62565b8060005b8581101561308657848403895281516130678582613002565b945061307283613016565b925060208a0199505060018101905061304e565b50829750879550505050505092915050565b600060208201905081810360008301526130b28184613023565b905092915050565b6000806000606084860312156130d3576130d2612642565b5b60006130e186828701612e48565b935050602084013567ffffffffffffffff81111561310257613101612647565b5b61310e86828701612bf1565b925050604084013567ffffffffffffffff81111561312f5761312e612647565b5b61313b86828701612bf1565b9150509250925092565b60006020828403121561315b5761315a612642565b5b600061316984828501612e48565b91505092915050565b60006020820190506131876000830184612ed6565b92915050565b600080604083850312156131a4576131a3612642565b5b60006131b285828601612e48565b92505060206131c3858286016126cb565b9150509250929050565b60006080820190506131e26000830187612d5a565b6131ef6020830186612d5a565b81810360408301526132018185612d7a565b905081810360608301526132158184612d7a565b905095945050505050565b7f5573657220646f6573206e6f7420657869737473000000000000000000000000600082015250565b6000613256601483612d69565b915061326182613220565b602082019050919050565b6000602082019050818103600083015261328581613249565b9050919050565b7f496e76616c696420726563697069656e74206164647265737300000000000000600082015250565b60006132c2601983612d69565b91506132cd8261328c565b602082019050919050565b600060208201905081810360008301526132f1816132b5565b9050919050565b7f496e76616c696420616d6f756e74000000000000000000000000000000000000600082015250565b600061332e600e83612d69565b9150613339826132f8565b602082019050919050565b6000602082019050818103600083015261335d81613321565b9050919050565b7f506c65617365206372656174652075736572206163636f756e74000000000000600082015250565b600061339a601a83612d69565b91506133a582613364565b602082019050919050565b600060208201905081810360008301526133c98161338d565b9050919050565b7f4e487b7100000000000000000000000000000000000000000000000000000000600052603260045260246000fd5b7f4e487b7100000000000000000000000000000000000000000000000000000000600052601160045260246000fd5b6000613439826126aa565b9150613444836126aa565b925082820190508082111561345c5761345b6133ff565b5b92915050565b7f4e487b7100000000000000000000000000000000000000000000000000000000600052602260045260246000fd5b600060028204905060018216806134a957607f821691505b6020821081036134bc576134bb613462565b5b50919050565b60006134cd826126aa565b91507fffffffffffffffffffffffffffffffffffffffffffffffffffffffffffffffff82036134ff576134fe6133ff565b5b600182019050919050565b7f436f6e74656e7420747970652063616e6e6f7420626520656d70747900000000600082015250565b6000613540601c83612d69565b915061354b8261350a565b602082019050919050565b6000602082019050818103600083015261356f81613533565b9050919050565b7f436f6e74656e742063616e6e6f7420626520656d707479000000000000000000600082015250565b60006135ac601783612d69565b91506135b782613576565b602082019050919050565b600060208201905081810360008301526135db8161359f565b9050919050565b6000819050919050565b6135fd6135f8826126aa565b6135e2565b82525050565b600081905092915050565b600061361982612786565b6136238185613603565b93506136338185602086016127a2565b80840191505092915050565b60008160601b9050919050565b60006136578261363f565b9050919050565b60006136698261364c565b9050919050565b61368161367c82612765565b61365e565b82525050565b600061369382866135ec565b6020820191506136a3828561360e565b91506136af8284613670565b601482019150819050949350505050565b60008190508160005260206000209050919050565b60006020601f8301049050919050565b600082821b905092915050565b6000600883026137227fffffffffffffffffffffffffffffffffffffffffffffffffffffffffffffffff826136e5565b61372c86836136e5565b95508019841693508086168417925050509392505050565b6000819050919050565b600061376961376461375f846126aa565b613744565b6126aa565b9050919050565b6000819050919050565b6137838361374e565b61379761378f82613770565b8484546136f2565b825550505050565b600090565b6137ac61379f565b6137b781848461377a565b505050565b5b818110156137db576137d06000826137a4565b6001810190506137bd565b5050565b601f821115613820576137f1816136c0565b6137fa846136d5565b81016020851015613809578190505b61381d613815856136d5565b8301826137bc565b50505b505050565b600082821c905092915050565b600061384360001984600802613825565b1980831691505092915050565b600061385c8383613832565b9150826002028217905092915050565b61387582612786565b67ffffffffffffffff81111561388e5761388d612af4565b5b6138988254613491565b6138a38282856137df565b600060209050601f8311600181146138d657600084156138c4578287015190505b6138ce8582613850565b865550613936565b601f1984166138e4866136c0565b60005b8281101561390c578489015182556001820191506020850194506020810190506138e7565b868310156139295784890151613925601f891682613832565b8355505b6001600288020188555050505b505050505050565b6000819050919050565b600061396361395e6139598461393e565b613744565b6126aa565b9050919050565b61397381613948565b82525050565b600060208201905061398e600083018461396a565b92915050565b7f557365726e616d652063616e6e6f7420626520656d7074790000000000000000600082015250565b60006139ca601883612d69565b91506139d582613994565b602082019050919050565b600060208201905081810360008301526139f9816139bd565b9050919050565b7f5573657220616c72656164792065786973747300000000000000000000000000600082015250565b6000613a36601383612d69565b9150613a4182613a00565b602082019050919050565b60006020820190508181036000830152613a6581613a29565b9050919050565b7f496e76616c696420616464726573730000000000000000000000000000000000600082015250565b6000613aa2600f83612d69565b9150613aad82613a6c565b602082019050919050565b60006020820190508181036000830152613ad181613a95565b9050919050565b7f506c65617365206c6f67696e20746f2061636365737320796f75722070726f6660008201527f696c652e2e2e2e00000000000000000000000000000000000000000000000000602082015250565b6000613b34602783612d69565b9150613b3f82613ad8565b604082019050919050565b60006020820190508181036000830152613b6381613b27565b9050919050565b7f436f6d6d656e742063616e6e6f7420626520656d707479000000000000000000600082015250565b6000613ba0601783612d69565b9150613bab82613b6a565b602082019050919050565b60006020820190508181036000830152613bcf81613b93565b905091905056fea264697066735822122042b19654965ba60e1353b4d9056b52e23dd5aefd452d20da21990788db25a5cd64736f6c63430008180033",
  "linkReferences": {},
  "deployedLinkReferences": {}
}