{
  "_format": "hh-sol-artifact-1",
  "contractName": "SocialMedia",
  "sourceName": "contracts/SocialMedia.sol",
  "abi": [
    {
      "anonymous": false,
      "inputs": [
        {
          "indexed": true,
          "internalType": "address",
          "name": "from",
          "type": "address"
        },
        {
          "indexed": true,
          "internalType": "address",
          "name": "to",
          "type": "address"
        },
        {
          "indexed": false,
          "internalType": "uint256",
          "name": "amount",
          "type": "uint256"
        }
      ],
      "name": "Reward",
      "type": "event"
    },
    {
      "inputs": [
        {
          "internalType": "bytes32",
          "name": "_postId",
          "type": "bytes32"
        },
        {
          "internalType": "string",
          "name": "_comment",
          "type": "string"
        },
        {
          "internalType": "string",
          "name": "username",
          "type": "string"
        }
      ],
      "name": "addComment",
      "outputs": [],
      "stateMutability": "nonpayable",
      "type": "function"
    },
    {
      "inputs": [
        {
          "internalType": "bytes32",
          "name": "",
          "type": "bytes32"
        },
        {
          "internalType": "uint256",
          "name": "",
          "type": "uint256"
        }
      ],
      "name": "comments",
      "outputs": [
        {
          "internalType": "bytes32",
          "name": "id",
          "type": "bytes32"
        },
        {
          "internalType": "bytes32",
          "name": "postId",
          "type": "bytes32"
        },
        {
          "internalType": "string",
          "name": "owner",
          "type": "string"
        },
        {
          "internalType": "string",
          "name": "content",
          "type": "string"
        }
      ],
      "stateMutability": "view",
      "type": "function"
    },
    {
      "inputs": [
        {
          "internalType": "string",
          "name": "_contentType",
          "type": "string"
        },
        {
          "internalType": "string",
          "name": "_content",
          "type": "string"
        }
      ],
      "name": "createPost",
      "outputs": [],
      "stateMutability": "nonpayable",
      "type": "function"
    },
    {
      "inputs": [
        {
          "internalType": "string",
          "name": "_username",
          "type": "string"
        },
        {
          "internalType": "string",
          "name": "_photoUrl",
          "type": "string"
        }
      ],
      "name": "createUser",
      "outputs": [],
      "stateMutability": "nonpayable",
      "type": "function"
    },
    {
      "inputs": [],
      "name": "getAllPosts",
      "outputs": [
        {
          "components": [
            {
              "internalType": "bytes32",
              "name": "id",
              "type": "bytes32"
            },
            {
              "internalType": "address",
              "name": "owner",
              "type": "address"
            },
            {
              "internalType": "string",
              "name": "ownerUsername",
              "type": "string"
            },
            {
              "internalType": "string",
              "name": "ownerPhotoUrl",
              "type": "string"
            },
            {
              "internalType": "string",
              "name": "contentType",
              "type": "string"
            },
            {
              "internalType": "string",
              "name": "content",
              "type": "string"
            },
            {
              "internalType": "uint256",
              "name": "likes",
              "type": "uint256"
            },
            {
              "internalType": "uint256",
              "name": "timestamp",
              "type": "uint256"
            },
            {
              "components": [
                {
                  "internalType": "bytes32",
                  "name": "id",
                  "type": "bytes32"
                },
                {
                  "internalType": "bytes32",
                  "name": "postId",
                  "type": "bytes32"
                },
                {
                  "internalType": "string",
                  "name": "owner",
                  "type": "string"
                },
                {
                  "internalType": "string",
                  "name": "content",
                  "type": "string"
                }
              ],
              "internalType": "struct SocialMedia.Comment[]",
              "name": "comment",
              "type": "tuple[]"
            }
          ],
          "internalType": "struct SocialMedia.PostWithOwner[]",
          "name": "",
          "type": "tuple[]"
        }
      ],
      "stateMutability": "view",
      "type": "function"
    },
    {
      "inputs": [
        {
          "internalType": "bytes32",
          "name": "_postId",
          "type": "bytes32"
        }
      ],
      "name": "getPostDetails",
      "outputs": [
        {
          "components": [
            {
              "internalType": "bytes32",
              "name": "id",
              "type": "bytes32"
            },
            {
              "internalType": "address",
              "name": "owner",
              "type": "address"
            },
            {
              "internalType": "string",
              "name": "ownerUsername",
              "type": "string"
            },
            {
              "internalType": "string",
              "name": "ownerPhotoUrl",
              "type": "string"
            },
            {
              "internalType": "string",
              "name": "contentType",
              "type": "string"
            },
            {
              "internalType": "string",
              "name": "content",
              "type": "string"
            },
            {
              "internalType": "uint256",
              "name": "likes",
              "type": "uint256"
            },
            {
              "internalType": "uint256",
              "name": "timestamp",
              "type": "uint256"
            },
            {
              "components": [
                {
                  "internalType": "bytes32",
                  "name": "id",
                  "type": "bytes32"
                },
                {
                  "internalType": "bytes32",
                  "name": "postId",
                  "type": "bytes32"
                },
                {
                  "internalType": "string",
                  "name": "owner",
                  "type": "string"
                },
                {
                  "internalType": "string",
                  "name": "content",
                  "type": "string"
                }
              ],
              "internalType": "struct SocialMedia.Comment[]",
              "name": "comment",
              "type": "tuple[]"
            }
          ],
          "internalType": "struct SocialMedia.PostWithOwner[]",
          "name": "",
          "type": "tuple[]"
        }
      ],
      "stateMutability": "view",
      "type": "function"
    },
    {
      "inputs": [
        {
          "internalType": "address",
          "name": "_userAddress",
          "type": "address"
        }
      ],
      "name": "getUserPosts",
      "outputs": [
        {
          "components": [
            {
              "internalType": "bytes32",
              "name": "id",
              "type": "bytes32"
            },
            {
              "internalType": "address",
              "name": "owner",
              "type": "address"
            },
            {
              "internalType": "string",
              "name": "contentType",
              "type": "string"
            },
            {
              "internalType": "string",
              "name": "content",
              "type": "string"
            },
            {
              "internalType": "uint256",
              "name": "likes",
              "type": "uint256"
            },
            {
              "internalType": "uint256",
              "name": "timestamp",
              "type": "uint256"
            }
          ],
          "internalType": "struct SocialMedia.Post[]",
          "name": "",
          "type": "tuple[]"
        }
      ],
      "stateMutability": "view",
      "type": "function"
    },
    {
      "inputs": [
        {
          "internalType": "address",
          "name": "_userAddress",
          "type": "address"
        }
      ],
      "name": "getUserProfile",
      "outputs": [
        {
          "internalType": "string",
          "name": "",
          "type": "string"
        },
        {
          "internalType": "string",
          "name": "",
          "type": "string"
        },
        {
          "internalType": "uint256",
          "name": "",
          "type": "uint256"
        },
        {
          "internalType": "uint256",
          "name": "",
          "type": "uint256"
        },
        {
          "internalType": "bool",
          "name": "",
          "type": "bool"
        }
      ],
      "stateMutability": "view",
      "type": "function"
    },
    {
      "inputs": [
        {
          "internalType": "bytes32",
          "name": "_postId",
          "type": "bytes32"
        },
        {
          "internalType": "address",
          "name": "userAddress",
          "type": "address"
        }
      ],
      "name": "likePost",
      "outputs": [],
      "stateMutability": "nonpayable",
      "type": "function"
    },
    {
      "inputs": [],
      "name": "login",
      "outputs": [],
      "stateMutability": "nonpayable",
      "type": "function"
    },
    {
      "inputs": [],
      "name": "logout",
      "outputs": [],
      "stateMutability": "nonpayable",
      "type": "function"
    },
    {
      "inputs": [
        {
          "internalType": "address",
          "name": "",
          "type": "address"
        },
        {
          "internalType": "uint256",
          "name": "",
          "type": "uint256"
        }
      ],
      "name": "posts",
      "outputs": [
        {
          "internalType": "bytes32",
          "name": "id",
          "type": "bytes32"
        },
        {
          "internalType": "address",
          "name": "owner",
          "type": "address"
        },
        {
          "internalType": "string",
          "name": "contentType",
          "type": "string"
        },
        {
          "internalType": "string",
          "name": "content",
          "type": "string"
        },
        {
          "internalType": "uint256",
          "name": "likes",
          "type": "uint256"
        },
        {
          "internalType": "uint256",
          "name": "timestamp",
          "type": "uint256"
        }
      ],
      "stateMutability": "view",
      "type": "function"
    },
    {
      "inputs": [
        {
          "internalType": "address payable",
          "name": "_to",
          "type": "address"
        }
      ],
      "name": "rewardEngagement",
      "outputs": [],
      "stateMutability": "payable",
      "type": "function"
    },
    {
      "inputs": [
        {
          "internalType": "uint256",
          "name": "",
          "type": "uint256"
        }
      ],
      "name": "userAddresses",
      "outputs": [
        {
          "internalType": "address",
          "name": "",
          "type": "address"
        }
      ],
      "stateMutability": "view",
      "type": "function"
    },
    {
      "inputs": [
        {
          "internalType": "address",
          "name": "",
          "type": "address"
        }
      ],
      "name": "users",
      "outputs": [
        {
          "internalType": "string",
          "name": "username",
          "type": "string"
        },
        {
          "internalType": "string",
          "name": "photoUrl",
          "type": "string"
        },
        {
          "internalType": "uint256",
          "name": "points",
          "type": "uint256"
        },
        {
          "internalType": "uint256",
          "name": "interactionTime",
          "type": "uint256"
        },
        {
          "internalType": "bool",
          "name": "isLoggedIn",
          "type": "bool"
        }
      ],
      "stateMutability": "view",
      "type": "function"
    }
  ],
  "bytecode": "0x608060405234801561001057600080fd5b50613d3d806100206000396000f3fe6080604052600436106100e85760003560e01c806387b162b51161008a578063a87430ba11610059578063a87430ba146102ec578063a9263d1e1461032d578063b34e97e81461036a578063d299788014610381576100e8565b806387b162b51461021c578063987ee156146102455780639a2194a914610286578063a7503db2146102c3576100e8565b80634eaa4dc4116100c65780634eaa4dc414610158578063502c9bd5146101745780635c538df3146101b15780636a50931a146101f3576100e8565b80631f3c99c3146100ed5780633056110014610104578063392338f51461012f575b600080fd5b3480156100f957600080fd5b506101026103c1565b005b34801561011057600080fd5b506101196104ab565b6040516101269190612afd565b60405180910390f35b34801561013b57600080fd5b5061015660048036038101906101519190612c68565b610c2c565b005b610172600480360381019061016d9190612d1e565b610eb5565b005b34801561018057600080fd5b5061019b60048036038101906101969190612d77565b610fb1565b6040516101a89190612db3565b60405180910390f35b3480156101bd57600080fd5b506101d860048036038101906101d39190612dfa565b610ff0565b6040516101ea96959493929190612ea2565b60405180910390f35b3480156101ff57600080fd5b5061021a60048036038101906102159190612f3d565b611179565b005b34801561022857600080fd5b50610243600480360381019061023e9190612c68565b6113db565b005b34801561025157600080fd5b5061026c60048036038101906102679190612f7d565b6115e1565b60405161027d959493929190612fc5565b60405180910390f35b34801561029257600080fd5b506102ad60048036038101906102a89190612f7d565b6118b2565b6040516102ba9190613178565b60405180910390f35b3480156102cf57600080fd5b506102ea60048036038101906102e5919061319a565b611aee565b005b3480156102f857600080fd5b50610313600480360381019061030e9190612f7d565b611c0c565b604051610324959493929190612fc5565b60405180910390f35b34801561033957600080fd5b50610354600480360381019061034f9190613225565b611d5f565b6040516103619190612afd565b60405180910390f35b34801561037657600080fd5b5061037f6123ee565b005b34801561038d57600080fd5b506103a860048036038101906103a39190613252565b612569565b6040516103b89493929190613292565b60405180910390f35b6000803373ffffffffffffffffffffffffffffffffffffffff1673ffffffffffffffffffffffffffffffffffffffff16815260200190815260200160002060040160009054906101000a900460ff1661044f576040517f08c379a000000000000000000000000000000000000000000000000000000000815260040161044690613331565b60405180910390fd5b60008060003373ffffffffffffffffffffffffffffffffffffffff1673ffffffffffffffffffffffffffffffffffffffff16815260200190815260200160002060040160006101000a81548160ff021916908315150217905550565b60606000803373ffffffffffffffffffffffffffffffffffffffff1673ffffffffffffffffffffffffffffffffffffffff16815260200190815260200160002060040160009054906101000a900460ff1661053b576040517f08c379a00000000000000000000000000000000000000000000000000000000081526004016105329061339d565b60405180910390fd5b6000805b6003805490508110156105ed57600060038281548110610562576105616133bd565b5b9060005260206000200160009054906101000a900473ffffffffffffffffffffffffffffffffffffffff169050600160008273ffffffffffffffffffffffffffffffffffffffff1673ffffffffffffffffffffffffffffffffffffffff16815260200190815260200160002080549050836105dd919061341b565b925050808060010191505061053f565b5060008167ffffffffffffffff81111561060a57610609612b3d565b5b60405190808252806020026020018201604052801561064357816020015b6106306126c6565b8152602001906001900390816106285790505b5090506000805b600380549050811015610c225760006003828154811061066d5761066c6133bd565b5b9060005260206000200160009054906101000a900473ffffffffffffffffffffffffffffffffffffffff1690506000600160008373ffffffffffffffffffffffffffffffffffffffff1673ffffffffffffffffffffffffffffffffffffffff168152602001908152602001600020905060005b8180549050811015610c12576000828281548110610701576107006133bd565b5b9060005260206000209060060201905060008060008360010160009054906101000a900473ffffffffffffffffffffffffffffffffffffffff1673ffffffffffffffffffffffffffffffffffffffff1673ffffffffffffffffffffffffffffffffffffffff1681526020019081526020016000209050600060026000846000015481526020019081526020016000209050604051806101200160405280846000015481526020018460010160009054906101000a900473ffffffffffffffffffffffffffffffffffffffff1673ffffffffffffffffffffffffffffffffffffffff1681526020018360000180546107f79061347e565b80601f01602080910402602001604051908101604052809291908181526020018280546108239061347e565b80156108705780601f1061084557610100808354040283529160200191610870565b820191906000526020600020905b81548152906001019060200180831161085357829003601f168201915b505050505081526020018360010180546108899061347e565b80601f01602080910402602001604051908101604052809291908181526020018280546108b59061347e565b80156109025780601f106108d757610100808354040283529160200191610902565b820191906000526020600020905b8154815290600101906020018083116108e557829003601f168201915b5050505050815260200184600201805461091b9061347e565b80601f01602080910402602001604051908101604052809291908181526020018280546109479061347e565b80156109945780601f1061096957610100808354040283529160200191610994565b820191906000526020600020905b81548152906001019060200180831161097757829003601f168201915b505050505081526020018460030180546109ad9061347e565b80601f01602080910402602001604051908101604052809291908181526020018280546109d99061347e565b8015610a265780601f106109fb57610100808354040283529160200191610a26565b820191906000526020600020905b815481529060010190602001808311610a0957829003601f168201915b50505050508152602001846004015481526020018460050154815260200182805480602002602001604051908101604052809291908181526020016000905b82821015610bcf57838290600052602060002090600402016040518060800160405290816000820154815260200160018201548152602001600282018054610aac9061347e565b80601f0160208091040260200160405190810160405280929190818152602001828054610ad89061347e565b8015610b255780601f10610afa57610100808354040283529160200191610b25565b820191906000526020600020905b815481529060010190602001808311610b0857829003601f168201915b50505050508152602001600382018054610b3e9061347e565b80601f0160208091040260200160405190810160405280929190818152602001828054610b6a9061347e565b8015610bb75780601f10610b8c57610100808354040283529160200191610bb7565b820191906000526020600020905b815481529060010190602001808311610b9a57829003601f168201915b50505050508152505081526020019060010190610a65565b50505050815250898981518110610be957610be86133bd565b5b60200260200101819052508780610bff906134af565b98505050505080806001019150506106e0565b505050808060010191505061064a565b5081935050505090565b6000803373ffffffffffffffffffffffffffffffffffffffff1673ffffffffffffffffffffffffffffffffffffffff16815260200190815260200160002060040160009054906101000a900460ff16610cba576040517f08c379a0000000000000000000000000000000000000000000000000000000008152600401610cb19061339d565b60405180910390fd5b6000825111610cfe576040517f08c379a0000000000000000000000000000000000000000000000000000000008152600401610cf590613543565b60405180910390fd5b6000815111610d42576040517f08c379a0000000000000000000000000000000000000000000000000000000008152600401610d39906135af565b60405180910390fd5b6000428233604051602001610d5993929190613674565b604051602081830303815290604052805190602001209050600160003373ffffffffffffffffffffffffffffffffffffffff1673ffffffffffffffffffffffffffffffffffffffff1681526020019081526020016000206040518060c001604052808381526020013373ffffffffffffffffffffffffffffffffffffffff168152602001858152602001848152602001600081526020014281525090806001815401808255809150506001900390600052602060002090600602016000909190919091506000820151816000015560208201518160010160006101000a81548173ffffffffffffffffffffffffffffffffffffffff021916908373ffffffffffffffffffffffffffffffffffffffff1602179055506040820151816002019081610e839190613859565b506060820151816003019081610e999190613859565b506080820151816004015560a082015181600501555050505050565b600073ffffffffffffffffffffffffffffffffffffffff168173ffffffffffffffffffffffffffffffffffffffff1603610f24576040517f08c379a0000000000000000000000000000000000000000000000000000000008152600401610f1b90613977565b60405180910390fd5b60003411610f67576040517f08c379a0000000000000000000000000000000000000000000000000000000008152600401610f5e906139e3565b60405180910390fd5b8073ffffffffffffffffffffffffffffffffffffffff166108fc349081150290604051600060405180830381858888f19350505050158015610fad573d6000803e3d6000fd5b5050565b60038181548110610fc157600080fd5b906000526020600020016000915054906101000a900473ffffffffffffffffffffffffffffffffffffffff1681565b6001602052816000526040600020818154811061100c57600080fd5b9060005260206000209060060201600091509150508060000154908060010160009054906101000a900473ffffffffffffffffffffffffffffffffffffffff169080600201805461105c9061347e565b80601f01602080910402602001604051908101604052809291908181526020018280546110889061347e565b80156110d55780601f106110aa576101008083540402835291602001916110d5565b820191906000526020600020905b8154815290600101906020018083116110b857829003601f168201915b5050505050908060030180546110ea9061347e565b80601f01602080910402602001604051908101604052809291908181526020018280546111169061347e565b80156111635780601f1061113857610100808354040283529160200191611163565b820191906000526020600020905b81548152906001019060200180831161114657829003601f168201915b5050505050908060040154908060050154905086565b6000803373ffffffffffffffffffffffffffffffffffffffff1673ffffffffffffffffffffffffffffffffffffffff16815260200190815260200160002060040160009054906101000a900460ff16611207576040517f08c379a00000000000000000000000000000000000000000000000000000000081526004016111fe9061339d565b60405180910390fd5b6000600160008373ffffffffffffffffffffffffffffffffffffffff1673ffffffffffffffffffffffffffffffffffffffff168152602001908152602001600020905060005b81805490508110156113d5578382828154811061126d5761126c6133bd565b5b906000526020600020906006020160000154036113c857818181548110611297576112966133bd565b5b906000526020600020906006020160040160008154809291906112b9906134af565b919050555060008282815481106112d3576112d26133bd565b5b906000526020600020906006020160010160009054906101000a900473ffffffffffffffffffffffffffffffffffffffff16905060016000808373ffffffffffffffffffffffffffffffffffffffff1673ffffffffffffffffffffffffffffffffffffffff1681526020019081526020016000206002016000828254611359919061341b565b925050819055508073ffffffffffffffffffffffffffffffffffffffff163373ffffffffffffffffffffffffffffffffffffffff167f6b053894d8fdbdcc936dd753e21291f0c48e68ef12306eb39a63a374147ba4bd60016040516113be9190613a3e565b60405180910390a3505b808060010191505061124d565b50505050565b600082511161141f576040517f08c379a000000000000000000000000000000000000000000000000000000000815260040161141690613aa5565b60405180910390fd5b6000803373ffffffffffffffffffffffffffffffffffffffff1673ffffffffffffffffffffffffffffffffffffffff16815260200190815260200160002060040160009054906101000a900460ff16156114ae576040517f08c379a00000000000000000000000000000000000000000000000000000000081526004016114a590613b11565b60405180910390fd5b6040518060a0016040528083815260200182815260200160008152602001428152602001600115158152506000803373ffffffffffffffffffffffffffffffffffffffff1673ffffffffffffffffffffffffffffffffffffffff168152602001908152602001600020600082015181600001908161152c9190613859565b5060208201518160010190816115429190613859565b50604082015181600201556060820151816003015560808201518160040160006101000a81548160ff0219169083151502179055509050506003339080600181540180825580915050600190039060005260206000200160009091909190916101000a81548173ffffffffffffffffffffffffffffffffffffffff021916908373ffffffffffffffffffffffffffffffffffffffff1602179055505050565b60608060008060008073ffffffffffffffffffffffffffffffffffffffff168673ffffffffffffffffffffffffffffffffffffffff1603611657576040517f08c379a000000000000000000000000000000000000000000000000000000000815260040161164e90613b7d565b60405180910390fd5b6000808773ffffffffffffffffffffffffffffffffffffffff1673ffffffffffffffffffffffffffffffffffffffff16815260200190815260200160002060040160009054906101000a900460ff166116e5576040517f08c379a00000000000000000000000000000000000000000000000000000000081526004016116dc90613c0f565b60405180910390fd5b60008060008873ffffffffffffffffffffffffffffffffffffffff1673ffffffffffffffffffffffffffffffffffffffff1681526020019081526020016000206040518060a00160405290816000820180546117409061347e565b80601f016020809104026020016040519081016040528092919081815260200182805461176c9061347e565b80156117b95780601f1061178e576101008083540402835291602001916117b9565b820191906000526020600020905b81548152906001019060200180831161179c57829003601f168201915b505050505081526020016001820180546117d29061347e565b80601f01602080910402602001604051908101604052809291908181526020018280546117fe9061347e565b801561184b5780601f106118205761010080835404028352916020019161184b565b820191906000526020600020905b81548152906001019060200180831161182e57829003601f168201915b5050505050815260200160028201548152602001600382015481526020016004820160009054906101000a900460ff161515151581525050905080600001518160200151826040015183606001518460800151955095509550955095505091939590929450565b60606000600160008473ffffffffffffffffffffffffffffffffffffffff1673ffffffffffffffffffffffffffffffffffffffff168152602001908152602001600020805480602002602001604051908101604052809291908181526020016000905b82821015611adf57838290600052602060002090600602016040518060c0016040529081600082015481526020016001820160009054906101000a900473ffffffffffffffffffffffffffffffffffffffff1673ffffffffffffffffffffffffffffffffffffffff1673ffffffffffffffffffffffffffffffffffffffff1681526020016002820180546119a89061347e565b80601f01602080910402602001604051908101604052809291908181526020018280546119d49061347e565b8015611a215780601f106119f657610100808354040283529160200191611a21565b820191906000526020600020905b815481529060010190602001808311611a0457829003601f168201915b50505050508152602001600382018054611a3a9061347e565b80601f0160208091040260200160405190810160405280929190818152602001828054611a669061347e565b8015611ab35780601f10611a8857610100808354040283529160200191611ab3565b820191906000526020600020905b815481529060010190602001808311611a9657829003601f168201915b505050505081526020016004820154815260200160058201548152505081526020019060010190611915565b50505050905080915050919050565b6000825111611b32576040517f08c379a0000000000000000000000000000000000000000000000000000000008152600401611b2990613c7b565b60405180910390fd5b6000428333604051602001611b4993929190613674565b604051602081830303815290604052805190602001209050600060405180608001604052808381526020018681526020018481526020018581525090506002600086815260200190815260200160002081908060018154018082558091505060019003906000526020600020906004020160009091909190915060008201518160000155602082015181600101556040820151816002019081611bec9190613859565b506060820151816003019081611c029190613859565b5050505050505050565b6000602052806000526040600020600091509050806000018054611c2f9061347e565b80601f0160208091040260200160405190810160405280929190818152602001828054611c5b9061347e565b8015611ca85780601f10611c7d57610100808354040283529160200191611ca8565b820191906000526020600020905b815481529060010190602001808311611c8b57829003601f168201915b505050505090806001018054611cbd9061347e565b80601f0160208091040260200160405190810160405280929190818152602001828054611ce99061347e565b8015611d365780601f10611d0b57610100808354040283529160200191611d36565b820191906000526020600020905b815481529060010190602001808311611d1957829003601f168201915b5050505050908060020154908060030154908060040160009054906101000a900460ff16905085565b60606000803373ffffffffffffffffffffffffffffffffffffffff1673ffffffffffffffffffffffffffffffffffffffff16815260200190815260200160002060040160009054906101000a900460ff16611def576040517f08c379a0000000000000000000000000000000000000000000000000000000008152600401611de69061339d565b60405180910390fd5b6000600160003373ffffffffffffffffffffffffffffffffffffffff1673ffffffffffffffffffffffffffffffffffffffff16815260200190815260200160002090506000600167ffffffffffffffff811115611e4f57611e4e612b3d565b5b604051908082528060200260200182016040528015611e8857816020015b611e756126c6565b815260200190600190039081611e6d5790505b50905060005b82805490508110156123e35784838281548110611eae57611ead6133bd565b5b906000526020600020906006020160000154036123d6576000838281548110611eda57611ed96133bd565b5b9060005260206000209060060201905060008060008360010160009054906101000a900473ffffffffffffffffffffffffffffffffffffffff1673ffffffffffffffffffffffffffffffffffffffff1673ffffffffffffffffffffffffffffffffffffffff1681526020019081526020016000209050600060026000846000015481526020019081526020016000209050604051806101200160405280846000015481526020018460010160009054906101000a900473ffffffffffffffffffffffffffffffffffffffff1673ffffffffffffffffffffffffffffffffffffffff168152602001836000018054611fd09061347e565b80601f0160208091040260200160405190810160405280929190818152602001828054611ffc9061347e565b80156120495780601f1061201e57610100808354040283529160200191612049565b820191906000526020600020905b81548152906001019060200180831161202c57829003601f168201915b505050505081526020018360010180546120629061347e565b80601f016020809104026020016040519081016040528092919081815260200182805461208e9061347e565b80156120db5780601f106120b0576101008083540402835291602001916120db565b820191906000526020600020905b8154815290600101906020018083116120be57829003601f168201915b505050505081526020018460020180546120f49061347e565b80601f01602080910402602001604051908101604052809291908181526020018280546121209061347e565b801561216d5780601f106121425761010080835404028352916020019161216d565b820191906000526020600020905b81548152906001019060200180831161215057829003601f168201915b505050505081526020018460030180546121869061347e565b80601f01602080910402602001604051908101604052809291908181526020018280546121b29061347e565b80156121ff5780601f106121d4576101008083540402835291602001916121ff565b820191906000526020600020905b8154815290600101906020018083116121e257829003601f168201915b50505050508152602001846004015481526020018460050154815260200182805480602002602001604051908101604052809291908181526020016000905b828210156123a8578382906000526020600020906004020160405180608001604052908160008201548152602001600182015481526020016002820180546122859061347e565b80601f01602080910402602001604051908101604052809291908181526020018280546122b19061347e565b80156122fe5780601f106122d3576101008083540402835291602001916122fe565b820191906000526020600020905b8154815290600101906020018083116122e157829003601f168201915b505050505081526020016003820180546123179061347e565b80601f01602080910402602001604051908101604052809291908181526020018280546123439061347e565b80156123905780601f1061236557610100808354040283529160200191612390565b820191906000526020600020905b81548152906001019060200180831161237357829003601f168201915b5050505050815250508152602001906001019061223e565b50505050815250856000815181106123c3576123c26133bd565b5b60200260200101819052505050506123e3565b8080600101915050611e8e565b508092505050919050565b6000803373ffffffffffffffffffffffffffffffffffffffff1673ffffffffffffffffffffffffffffffffffffffff16815260200190815260200160002060040160009054906101000a900460ff161561247d576040517f08c379a000000000000000000000000000000000000000000000000000000000815260040161247490613ce7565b60405180910390fd5b60008060003373ffffffffffffffffffffffffffffffffffffffff1673ffffffffffffffffffffffffffffffffffffffff16815260200190815260200160002060000180546124cb9061347e565b90501161250d576040517f08c379a00000000000000000000000000000000000000000000000000000000081526004016125049061339d565b60405180910390fd5b60016000803373ffffffffffffffffffffffffffffffffffffffff1673ffffffffffffffffffffffffffffffffffffffff16815260200190815260200160002060040160006101000a81548160ff021916908315150217905550565b6002602052816000526040600020818154811061258557600080fd5b9060005260206000209060040201600091509150508060000154908060010154908060020180546125b59061347e565b80601f01602080910402602001604051908101604052809291908181526020018280546125e19061347e565b801561262e5780601f106126035761010080835404028352916020019161262e565b820191906000526020600020905b81548152906001019060200180831161261157829003601f168201915b5050505050908060030180546126439061347e565b80601f016020809104026020016040519081016040528092919081815260200182805461266f9061347e565b80156126bc5780601f10612691576101008083540402835291602001916126bc565b820191906000526020600020905b81548152906001019060200180831161269f57829003601f168201915b5050505050905084565b60405180610120016040528060008019168152602001600073ffffffffffffffffffffffffffffffffffffffff168152602001606081526020016060815260200160608152602001606081526020016000815260200160008152602001606081525090565b600081519050919050565b600082825260208201905092915050565b6000819050602082019050919050565b6000819050919050565b61276a81612757565b82525050565b600073ffffffffffffffffffffffffffffffffffffffff82169050919050565b600061279b82612770565b9050919050565b6127ab81612790565b82525050565b600081519050919050565b600082825260208201905092915050565b60005b838110156127eb5780820151818401526020810190506127d0565b60008484015250505050565b6000601f19601f8301169050919050565b6000612813826127b1565b61281d81856127bc565b935061282d8185602086016127cd565b612836816127f7565b840191505092915050565b6000819050919050565b61285481612841565b82525050565b600081519050919050565b600082825260208201905092915050565b6000819050602082019050919050565b600060808301600083015161289e6000860182612761565b5060208301516128b16020860182612761565b50604083015184820360408601526128c98282612808565b915050606083015184820360608601526128e38282612808565b9150508091505092915050565b60006128fc8383612886565b905092915050565b6000602082019050919050565b600061291c8261285a565b6129268185612865565b93508360208202850161293885612876565b8060005b85811015612974578484038952815161295585826128f0565b945061296083612904565b925060208a0199505060018101905061293c565b50829750879550505050505092915050565b60006101208301600083015161299f6000860182612761565b5060208301516129b260208601826127a2565b50604083015184820360408601526129ca8282612808565b915050606083015184820360608601526129e48282612808565b915050608083015184820360808601526129fe8282612808565b91505060a083015184820360a0860152612a188282612808565b91505060c0830151612a2d60c086018261284b565b5060e0830151612a4060e086018261284b565b50610100830151848203610100860152612a5a8282612911565b9150508091505092915050565b6000612a738383612986565b905092915050565b6000602082019050919050565b6000612a938261272b565b612a9d8185612736565b935083602082028501612aaf85612747565b8060005b85811015612aeb5784840389528151612acc8582612a67565b9450612ad783612a7b565b925060208a01995050600181019050612ab3565b50829750879550505050505092915050565b60006020820190508181036000830152612b178184612a88565b905092915050565b6000604051905090565b600080fd5b600080fd5b600080fd5b600080fd5b7f4e487b7100000000000000000000000000000000000000000000000000000000600052604160045260246000fd5b612b75826127f7565b810181811067ffffffffffffffff82111715612b9457612b93612b3d565b5b80604052505050565b6000612ba7612b1f565b9050612bb38282612b6c565b919050565b600067ffffffffffffffff821115612bd357612bd2612b3d565b5b612bdc826127f7565b9050602081019050919050565b82818337600083830152505050565b6000612c0b612c0684612bb8565b612b9d565b905082815260208101848484011115612c2757612c26612b38565b5b612c32848285612be9565b509392505050565b600082601f830112612c4f57612c4e612b33565b5b8135612c5f848260208601612bf8565b91505092915050565b60008060408385031215612c7f57612c7e612b29565b5b600083013567ffffffffffffffff811115612c9d57612c9c612b2e565b5b612ca985828601612c3a565b925050602083013567ffffffffffffffff811115612cca57612cc9612b2e565b5b612cd685828601612c3a565b9150509250929050565b6000612ceb82612770565b9050919050565b612cfb81612ce0565b8114612d0657600080fd5b50565b600081359050612d1881612cf2565b92915050565b600060208284031215612d3457612d33612b29565b5b6000612d4284828501612d09565b91505092915050565b612d5481612841565b8114612d5f57600080fd5b50565b600081359050612d7181612d4b565b92915050565b600060208284031215612d8d57612d8c612b29565b5b6000612d9b84828501612d62565b91505092915050565b612dad81612790565b82525050565b6000602082019050612dc86000830184612da4565b92915050565b612dd781612790565b8114612de257600080fd5b50565b600081359050612df481612dce565b92915050565b60008060408385031215612e1157612e10612b29565b5b6000612e1f85828601612de5565b9250506020612e3085828601612d62565b9150509250929050565b612e4381612757565b82525050565b600082825260208201905092915050565b6000612e65826127b1565b612e6f8185612e49565b9350612e7f8185602086016127cd565b612e88816127f7565b840191505092915050565b612e9c81612841565b82525050565b600060c082019050612eb76000830189612e3a565b612ec46020830188612da4565b8181036040830152612ed68187612e5a565b90508181036060830152612eea8186612e5a565b9050612ef96080830185612e93565b612f0660a0830184612e93565b979650505050505050565b612f1a81612757565b8114612f2557600080fd5b50565b600081359050612f3781612f11565b92915050565b60008060408385031215612f5457612f53612b29565b5b6000612f6285828601612f28565b9250506020612f7385828601612de5565b9150509250929050565b600060208284031215612f9357612f92612b29565b5b6000612fa184828501612de5565b91505092915050565b60008115159050919050565b612fbf81612faa565b82525050565b600060a0820190508181036000830152612fdf8188612e5a565b90508181036020830152612ff38187612e5a565b90506130026040830186612e93565b61300f6060830185612e93565b61301c6080830184612fb6565b9695505050505050565b600081519050919050565b600082825260208201905092915050565b6000819050602082019050919050565b600060c08301600083015161306a6000860182612761565b50602083015161307d60208601826127a2565b50604083015184820360408601526130958282612808565b915050606083015184820360608601526130af8282612808565b91505060808301516130c4608086018261284b565b5060a08301516130d760a086018261284b565b508091505092915050565b60006130ee8383613052565b905092915050565b6000602082019050919050565b600061310e82613026565b6131188185613031565b93508360208202850161312a85613042565b8060005b85811015613166578484038952815161314785826130e2565b9450613152836130f6565b925060208a0199505060018101905061312e565b50829750879550505050505092915050565b600060208201905081810360008301526131928184613103565b905092915050565b6000806000606084860312156131b3576131b2612b29565b5b60006131c186828701612f28565b935050602084013567ffffffffffffffff8111156131e2576131e1612b2e565b5b6131ee86828701612c3a565b925050604084013567ffffffffffffffff81111561320f5761320e612b2e565b5b61321b86828701612c3a565b9150509250925092565b60006020828403121561323b5761323a612b29565b5b600061324984828501612f28565b91505092915050565b6000806040838503121561326957613268612b29565b5b600061327785828601612f28565b925050602061328885828601612d62565b9150509250929050565b60006080820190506132a76000830187612e3a565b6132b46020830186612e3a565b81810360408301526132c68185612e5a565b905081810360608301526132da8184612e5a565b905095945050505050565b7f5573657220646f6573206e6f7420657869737473000000000000000000000000600082015250565b600061331b601483612e49565b9150613326826132e5565b602082019050919050565b6000602082019050818103600083015261334a8161330e565b9050919050565b7f506c65617365206372656174652075736572206163636f756e74000000000000600082015250565b6000613387601a83612e49565b915061339282613351565b602082019050919050565b600060208201905081810360008301526133b68161337a565b9050919050565b7f4e487b7100000000000000000000000000000000000000000000000000000000600052603260045260246000fd5b7f4e487b7100000000000000000000000000000000000000000000000000000000600052601160045260246000fd5b600061342682612841565b915061343183612841565b9250828201905080821115613449576134486133ec565b5b92915050565b7f4e487b7100000000000000000000000000000000000000000000000000000000600052602260045260246000fd5b6000600282049050600182168061349657607f821691505b6020821081036134a9576134a861344f565b5b50919050565b60006134ba82612841565b91507fffffffffffffffffffffffffffffffffffffffffffffffffffffffffffffffff82036134ec576134eb6133ec565b5b600182019050919050565b7f436f6e74656e7420747970652063616e6e6f7420626520656d70747900000000600082015250565b600061352d601c83612e49565b9150613538826134f7565b602082019050919050565b6000602082019050818103600083015261355c81613520565b9050919050565b7f436f6e74656e742063616e6e6f7420626520656d707479000000000000000000600082015250565b6000613599601783612e49565b91506135a482613563565b602082019050919050565b600060208201905081810360008301526135c88161358c565b9050919050565b6000819050919050565b6135ea6135e582612841565b6135cf565b82525050565b600081905092915050565b6000613606826127b1565b61361081856135f0565b93506136208185602086016127cd565b80840191505092915050565b60008160601b9050919050565b60006136448261362c565b9050919050565b600061365682613639565b9050919050565b61366e61366982612790565b61364b565b82525050565b600061368082866135d9565b60208201915061369082856135fb565b915061369c828461365d565b601482019150819050949350505050565b60008190508160005260206000209050919050565b60006020601f8301049050919050565b600082821b905092915050565b60006008830261370f7fffffffffffffffffffffffffffffffffffffffffffffffffffffffffffffffff826136d2565b61371986836136d2565b95508019841693508086168417925050509392505050565b6000819050919050565b600061375661375161374c84612841565b613731565b612841565b9050919050565b6000819050919050565b6137708361373b565b61378461377c8261375d565b8484546136df565b825550505050565b600090565b61379961378c565b6137a4818484613767565b505050565b5b818110156137c8576137bd600082613791565b6001810190506137aa565b5050565b601f82111561380d576137de816136ad565b6137e7846136c2565b810160208510156137f6578190505b61380a613802856136c2565b8301826137a9565b50505b505050565b600082821c905092915050565b600061383060001984600802613812565b1980831691505092915050565b6000613849838361381f565b9150826002028217905092915050565b613862826127b1565b67ffffffffffffffff81111561387b5761387a612b3d565b5b613885825461347e565b6138908282856137cc565b600060209050601f8311600181146138c357600084156138b1578287015190505b6138bb858261383d565b865550613923565b601f1984166138d1866136ad565b60005b828110156138f9578489015182556001820191506020850194506020810190506138d4565b868310156139165784890151613912601f89168261381f565b8355505b6001600288020188555050505b505050505050565b7f496e76616c696420726563697069656e74206164647265737300000000000000600082015250565b6000613961601983612e49565b915061396c8261392b565b602082019050919050565b6000602082019050818103600083015261399081613954565b9050919050565b7f496e76616c696420616d6f756e74000000000000000000000000000000000000600082015250565b60006139cd600e83612e49565b91506139d882613997565b602082019050919050565b600060208201905081810360008301526139fc816139c0565b9050919050565b6000819050919050565b6000613a28613a23613a1e84613a03565b613731565b612841565b9050919050565b613a3881613a0d565b82525050565b6000602082019050613a536000830184613a2f565b92915050565b7f557365726e616d652063616e6e6f7420626520656d7074790000000000000000600082015250565b6000613a8f601883612e49565b9150613a9a82613a59565b602082019050919050565b60006020820190508181036000830152613abe81613a82565b9050919050565b7f5573657220616c72656164792065786973747300000000000000000000000000600082015250565b6000613afb601383612e49565b9150613b0682613ac5565b602082019050919050565b60006020820190508181036000830152613b2a81613aee565b9050919050565b7f496e76616c696420616464726573730000000000000000000000000000000000600082015250565b6000613b67600f83612e49565b9150613b7282613b31565b602082019050919050565b60006020820190508181036000830152613b9681613b5a565b9050919050565b7f506c65617365206c6f67696e20746f2061636365737320796f75722070726f6660008201527f696c652e2e2e2e00000000000000000000000000000000000000000000000000602082015250565b6000613bf9602783612e49565b9150613c0482613b9d565b604082019050919050565b60006020820190508181036000830152613c2881613bec565b9050919050565b7f436f6d6d656e742063616e6e6f7420626520656d707479000000000000000000600082015250565b6000613c65601783612e49565b9150613c7082613c2f565b602082019050919050565b60006020820190508181036000830152613c9481613c58565b9050919050565b7f5573657220616c7265616479206c6f6767656420696e00000000000000000000600082015250565b6000613cd1601683612e49565b9150613cdc82613c9b565b602082019050919050565b60006020820190508181036000830152613d0081613cc4565b905091905056fea26469706673582212202d010dea29917c86c19f55921dc8f5199f6ff3ba2b219c533031f11b4a2cacd664736f6c63430008180033",
  "linkReferences": {},
  "deployedLinkReferences": {}
}